{
  "abi": [
    {
      "inputs": [
        {
          "internalType": "address",
          "name": "_authority",
          "type": "address"
        },
        {
          "internalType": "uint256",
          "name": "_maxNetDhvExposure",
          "type": "uint256"
        }
      ],
      "stateMutability": "nonpayable",
      "type": "constructor"
    },
    {
      "inputs": [],
      "name": "IncorrectSeriesToRemove",
      "type": "error"
    },
    {
      "inputs": [],
      "name": "MaxNetDhvExposureExceeded",
      "type": "error"
    },
    {
      "inputs": [],
      "name": "NoShortPositions",
      "type": "error"
    },
    {
      "inputs": [],
      "name": "NoVaultForShortPositions",
      "type": "error"
    },
    {
      "inputs": [],
      "name": "NotKeeper",
      "type": "error"
    },
    {
      "inputs": [
        {
          "internalType": "uint256",
          "name": "index",
          "type": "uint256"
        },
        {
          "internalType": "address",
          "name": "seriesAddress",
          "type": "address"
        }
      ],
      "name": "OptionHasExpiredInStores",
      "type": "error"
    },
    {
      "inputs": [],
      "name": "PRBMathSD59x18__AbsInputTooSmall",
      "type": "error"
    },
    {
      "inputs": [
        {
          "internalType": "uint256",
          "name": "prod1",
          "type": "uint256"
        }
      ],
      "name": "PRBMath__MulDivFixedPointOverflow",
      "type": "error"
    },
    {
      "inputs": [
        {
          "internalType": "uint256",
          "name": "prod1",
          "type": "uint256"
        },
        {
          "internalType": "uint256",
          "name": "denominator",
          "type": "uint256"
        }
      ],
      "name": "PRBMath__MulDivOverflow",
      "type": "error"
    },
    {
      "inputs": [],
      "name": "SeriesNotExpired",
      "type": "error"
    },
    {
      "inputs": [],
      "name": "UNAUTHORIZED",
      "type": "error"
    },
    {
      "anonymous": false,
      "inputs": [
        {
          "indexed": false,
          "internalType": "contract IAuthority",
          "name": "authority",
          "type": "address"
        }
      ],
      "name": "AuthorityUpdated",
      "type": "event"
    },
    {
      "anonymous": false,
      "inputs": [
        {
          "indexed": true,
          "internalType": "address",
          "name": "underlying",
          "type": "address"
        },
        {
          "indexed": true,
          "internalType": "address",
          "name": "strike",
          "type": "address"
        },
        {
          "indexed": false,
          "internalType": "int256",
          "name": "delta",
          "type": "int256"
        },
        {
          "indexed": false,
          "internalType": "int256",
          "name": "gamma",
          "type": "int256"
        },
        {
          "indexed": false,
          "internalType": "int256",
          "name": "vega",
          "type": "int256"
        },
        {
          "indexed": false,
          "internalType": "int256",
          "name": "theta",
          "type": "int256"
        },
        {
          "indexed": false,
          "internalType": "int256",
          "name": "callPutsValue",
          "type": "int256"
        }
      ],
      "name": "DataFullfilled",
      "type": "event"
    },
    {
      "anonymous": false,
      "inputs": [
        {
          "indexed": false,
          "internalType": "uint256",
          "name": "maxNetDhvExposure",
          "type": "uint256"
        }
      ],
      "name": "MaxNetDhvExposureUpdated",
      "type": "event"
    },
    {
      "anonymous": false,
      "inputs": [
        {
          "indexed": false,
          "internalType": "address",
          "name": "_underlying",
          "type": "address"
        },
        {
          "indexed": false,
          "internalType": "address",
          "name": "_strike",
          "type": "address"
        }
      ],
      "name": "RequestedUpdate",
      "type": "event"
    },
    {
      "anonymous": false,
      "inputs": [
        {
          "indexed": false,
          "internalType": "address",
          "name": "seriesAddress",
          "type": "address"
        },
        {
          "indexed": false,
          "internalType": "int256",
          "name": "shortExposure",
          "type": "int256"
        },
        {
          "indexed": false,
          "internalType": "int256",
          "name": "longExposure",
          "type": "int256"
        },
        {
          "components": [
            {
              "internalType": "uint64",
              "name": "expiration",
              "type": "uint64"
            },
            {
              "internalType": "uint128",
              "name": "strike",
              "type": "uint128"
            },
            {
              "internalType": "bool",
              "name": "isPut",
              "type": "bool"
            },
            {
              "internalType": "address",
              "name": "underlying",
              "type": "address"
            },
            {
              "internalType": "address",
              "name": "strikeAsset",
              "type": "address"
            },
            {
              "internalType": "address",
              "name": "collateral",
              "type": "address"
            }
          ],
          "indexed": false,
          "internalType": "struct Types.OptionSeries",
          "name": "optionSeries",
          "type": "tuple"
        }
      ],
      "name": "StoresUpdated",
      "type": "event"
    },
    {
      "inputs": [
        {
          "internalType": "address",
          "name": "_series",
          "type": "address"
        }
      ],
      "name": "accountLiquidatedSeries",
      "outputs": [],
      "stateMutability": "nonpayable",
      "type": "function"
    },
    {
      "inputs": [
        {
          "internalType": "uint256",
          "name": "_i",
          "type": "uint256"
        }
      ],
      "name": "addressAtIndexInSet",
      "outputs": [
        {
          "internalType": "address",
          "name": "",
          "type": "address"
        }
      ],
      "stateMutability": "view",
      "type": "function"
    },
    {
      "inputs": [],
      "name": "addressSetLength",
      "outputs": [
        {
          "internalType": "uint256",
          "name": "",
          "type": "uint256"
        }
      ],
      "stateMutability": "view",
      "type": "function"
    },
    {
      "inputs": [],
      "name": "authority",
      "outputs": [
        {
          "internalType": "contract IAuthority",
          "name": "",
          "type": "address"
        }
      ],
      "stateMutability": "view",
      "type": "function"
    },
    {
      "inputs": [
        {
          "internalType": "address",
          "name": "_series",
          "type": "address"
        }
      ],
      "name": "cleanLooperManually",
      "outputs": [],
      "stateMutability": "nonpayable",
      "type": "function"
    },
    {
      "inputs": [
        {
          "internalType": "address",
          "name": "_underlying",
          "type": "address"
        },
        {
          "internalType": "address",
          "name": "_strikeAsset",
          "type": "address"
        }
      ],
      "name": "fulfill",
      "outputs": [],
      "stateMutability": "nonpayable",
      "type": "function"
    },
    {
      "inputs": [],
      "name": "getAddressSet",
      "outputs": [
        {
          "internalType": "address[]",
          "name": "",
          "type": "address[]"
        }
      ],
      "stateMutability": "view",
      "type": "function"
    },
    {
      "inputs": [
        {
          "internalType": "address",
          "name": "underlying",
          "type": "address"
        },
        {
          "internalType": "address",
          "name": "strike",
          "type": "address"
        }
      ],
      "name": "getPortfolioValues",
      "outputs": [
        {
          "components": [
            {
              "internalType": "int256",
              "name": "delta",
              "type": "int256"
            },
            {
              "internalType": "int256",
              "name": "gamma",
              "type": "int256"
            },
            {
              "internalType": "int256",
              "name": "vega",
              "type": "int256"
            },
            {
              "internalType": "int256",
              "name": "theta",
              "type": "int256"
            },
            {
              "internalType": "int256",
              "name": "callPutsValue",
              "type": "int256"
            },
            {
              "internalType": "uint256",
              "name": "timestamp",
              "type": "uint256"
            },
            {
              "internalType": "uint256",
              "name": "spotPrice",
              "type": "uint256"
            }
          ],
          "internalType": "struct Types.PortfolioValues",
          "name": "",
          "type": "tuple"
        }
      ],
      "stateMutability": "view",
      "type": "function"
    },
    {
      "inputs": [
        {
          "internalType": "address",
          "name": "",
          "type": "address"
        }
      ],
      "name": "handler",
      "outputs": [
        {
          "internalType": "bool",
          "name": "",
          "type": "bool"
        }
      ],
      "stateMutability": "view",
      "type": "function"
    },
    {
      "inputs": [
        {
          "internalType": "address",
          "name": "_a",
          "type": "address"
        }
      ],
      "name": "isAddressInSet",
      "outputs": [
        {
          "internalType": "bool",
          "name": "",
          "type": "bool"
        }
      ],
      "stateMutability": "view",
      "type": "function"
    },
    {
      "inputs": [
        {
          "internalType": "address",
          "name": "",
          "type": "address"
        }
      ],
      "name": "keeper",
      "outputs": [
        {
          "internalType": "bool",
          "name": "",
          "type": "bool"
        }
      ],
      "stateMutability": "view",
      "type": "function"
    },
    {
      "inputs": [],
      "name": "liquidityPool",
      "outputs": [
        {
          "internalType": "contract ILiquidityPool",
          "name": "",
          "type": "address"
        }
      ],
      "stateMutability": "view",
      "type": "function"
    },
    {
      "inputs": [],
      "name": "maxNetDhvExposure",
      "outputs": [
        {
          "internalType": "uint256",
          "name": "",
          "type": "uint256"
        }
      ],
      "stateMutability": "view",
      "type": "function"
    },
    {
      "inputs": [
        {
          "internalType": "contract IPortfolioValuesFeed",
          "name": "_migrateContract",
          "type": "address"
        }
      ],
      "name": "migrate",
      "outputs": [],
      "stateMutability": "nonpayable",
      "type": "function"
    },
    {
      "inputs": [
        {
          "internalType": "bytes32",
          "name": "",
          "type": "bytes32"
        }
      ],
      "name": "netDhvExposure",
      "outputs": [
        {
          "internalType": "int256",
          "name": "",
          "type": "int256"
        }
      ],
      "stateMutability": "view",
      "type": "function"
    },
    {
      "inputs": [],
      "name": "protocol",
      "outputs": [
        {
          "internalType": "contract Protocol",
          "name": "",
          "type": "address"
        }
      ],
      "stateMutability": "view",
      "type": "function"
    },
    {
      "inputs": [
        {
          "internalType": "address",
          "name": "_underlying",
          "type": "address"
        },
        {
          "internalType": "address",
          "name": "_strike",
          "type": "address"
        }
      ],
      "name": "requestPortfolioData",
      "outputs": [
        {
          "internalType": "bytes32",
          "name": "id",
          "type": "bytes32"
        }
      ],
      "stateMutability": "nonpayable",
      "type": "function"
    },
    {
      "inputs": [],
      "name": "rfr",
      "outputs": [
        {
          "internalType": "uint256",
          "name": "",
          "type": "uint256"
        }
      ],
      "stateMutability": "view",
      "type": "function"
    },
    {
      "inputs": [
        {
          "internalType": "contract IAuthority",
          "name": "_newAuthority",
          "type": "address"
        }
      ],
      "name": "setAuthority",
      "outputs": [],
      "stateMutability": "nonpayable",
      "type": "function"
    },
    {
      "inputs": [
        {
          "internalType": "address",
          "name": "_handler",
          "type": "address"
        },
        {
          "internalType": "bool",
          "name": "_auth",
          "type": "bool"
        }
      ],
      "name": "setHandler",
      "outputs": [],
      "stateMutability": "nonpayable",
      "type": "function"
    },
    {
      "inputs": [
        {
          "internalType": "address",
          "name": "_keeper",
          "type": "address"
        },
        {
          "internalType": "bool",
          "name": "_auth",
          "type": "bool"
        }
      ],
      "name": "setKeeper",
      "outputs": [],
      "stateMutability": "nonpayable",
      "type": "function"
    },
    {
      "inputs": [
        {
          "internalType": "address",
          "name": "_liquidityPool",
          "type": "address"
        }
      ],
      "name": "setLiquidityPool",
      "outputs": [],
      "stateMutability": "nonpayable",
      "type": "function"
    },
    {
      "inputs": [
        {
          "internalType": "uint256",
          "name": "_maxNetDhvExposure",
          "type": "uint256"
        }
      ],
      "name": "setMaxNetDhvExposure",
      "outputs": [],
      "stateMutability": "nonpayable",
      "type": "function"
    },
    {
      "inputs": [
        {
          "internalType": "address",
          "name": "_protocol",
          "type": "address"
        }
      ],
      "name": "setProtocol",
      "outputs": [],
      "stateMutability": "nonpayable",
      "type": "function"
    },
    {
      "inputs": [
        {
          "internalType": "uint256",
          "name": "_rfr",
          "type": "uint256"
        }
      ],
      "name": "setRFR",
      "outputs": [],
      "stateMutability": "nonpayable",
      "type": "function"
    },
    {
      "inputs": [
        {
          "internalType": "address",
          "name": "",
          "type": "address"
        }
      ],
      "name": "storesForAddress",
      "outputs": [
        {
          "components": [
            {
              "internalType": "uint64",
              "name": "expiration",
              "type": "uint64"
            },
            {
              "internalType": "uint128",
              "name": "strike",
              "type": "uint128"
            },
            {
              "internalType": "bool",
              "name": "isPut",
              "type": "bool"
            },
            {
              "internalType": "address",
              "name": "underlying",
              "type": "address"
            },
            {
              "internalType": "address",
              "name": "strikeAsset",
              "type": "address"
            },
            {
              "internalType": "address",
              "name": "collateral",
              "type": "address"
            }
          ],
          "internalType": "struct Types.OptionSeries",
          "name": "optionSeries",
          "type": "tuple"
        },
        {
          "internalType": "int256",
          "name": "shortExposure",
          "type": "int256"
        },
        {
          "internalType": "int256",
          "name": "longExposure",
          "type": "int256"
        }
      ],
      "stateMutability": "view",
      "type": "function"
    },
    {
      "inputs": [],
      "name": "syncLooper",
      "outputs": [],
      "stateMutability": "nonpayable",
      "type": "function"
    },
    {
      "inputs": [
        {
          "components": [
            {
              "internalType": "uint64",
              "name": "expiration",
              "type": "uint64"
            },
            {
              "internalType": "uint128",
              "name": "strike",
              "type": "uint128"
            },
            {
              "internalType": "bool",
              "name": "isPut",
              "type": "bool"
            },
            {
              "internalType": "address",
              "name": "underlying",
              "type": "address"
            },
            {
              "internalType": "address",
              "name": "strikeAsset",
              "type": "address"
            },
            {
              "internalType": "address",
              "name": "collateral",
              "type": "address"
            }
          ],
          "internalType": "struct Types.OptionSeries",
          "name": "_optionSeries",
          "type": "tuple"
        },
        {
          "internalType": "int256",
          "name": "shortExposure",
          "type": "int256"
        },
        {
          "internalType": "int256",
          "name": "longExposure",
          "type": "int256"
        },
        {
          "internalType": "address",
          "name": "_seriesAddress",
          "type": "address"
        }
      ],
      "name": "updateStores",
      "outputs": [],
      "stateMutability": "nonpayable",
      "type": "function"
    }
  ],
  "bytecode": {
    "object": "0x60806040526000600a553480156200001657600080fd5b506040516200279438038062002794833981016040819052620000399162000097565b600080546001600160a01b0319166001600160a01b03841690811790915560405190815282907f2f658b440c35314f52658ea8a740e05b284cdc84dc9ae01e891f21b8933e7cad9060200160405180910390a150600b5550620000d3565b60008060408385031215620000ab57600080fd5b82516001600160a01b0381168114620000c357600080fd5b6020939093015192949293505050565b6126b180620000e36000396000f3fe608060405234801561001057600080fd5b50600436106101c45760003560e01c80639cb7de4b116100f9578063ce5494bb11610097578063dfef605e11610071578063dfef605e146104ad578063e138e2e3146104d0578063e8cf8608146104d8578063f02de0e9146104fb57600080fd5b8063ce5494bb14610474578063d1b9e85314610487578063dce66fb81461049a57600080fd5b8063bf7e214f116100d3578063bf7e214f1461037d578063c238f68d14610390578063c646240c1461043c578063ce0914e61461045f57600080fd5b80639cb7de4b1461034f578063a31697ac14610362578063a44b6edc1461036a57600080fd5b80633e4a5c83116101665780635f098428116101405780635f098428146102eb578063665a11ca146102fe5780637a9e5e4b146103295780638ce744261461033c57600080fd5b80633e4a5c831461025c5780634e133d4d1461026f5780635053a962146102d857600080fd5b80630a9d793d116101a25780630a9d793d1461020d578063131658941461022057806321e04dd4146102335780632ab6bfaf1461025357600080fd5b806301877020146101c957806305c25390146101de57806306bd74b514610204575b600080fd5b6101dc6101d7366004611e0e565b61050e565b005b6101f16101ec366004611e2b565b610538565b6040519081526020015b60405180910390f35b6101f1600b5481565b6101dc61021b366004611e0e565b610584565b6101dc61022e366004611e0e565b6105ae565b6101f1610241366004611e64565b60056020526000908152604090205481565b6101f1600a5481565b6101dc61026a366004611e2b565b61088b565b61028261027d366004611e2b565b610d74565b6040516101fb9190600060e082019050825182526020830151602083015260408301516040830152606083015160608301526080830151608083015260a083015160a083015260c083015160c083015292915050565b6101dc6102e6366004611e0e565b610e2f565b6101dc6102f9366004611e64565b610eaf565b600754610311906001600160a01b031681565b6040516001600160a01b0390911681526020016101fb565b6101dc610337366004611e0e565b610ef3565b600654610311906001600160a01b031681565b6101dc61035d366004611e8d565b610f49565b6101f1610f7c565b6101dc610378366004611e64565b610f8d565b600054610311906001600160a01b031681565b61042d61039e366004611e0e565b600160208181526000928352604092839020835160c08101855281546001600160401b0381168252600160401b81046001600160801b031693820193909352600160c01b90920460ff16151593820193909352908201546001600160a01b03908116606083015260028301548116608083015260038301541660a0820152600482015460059092015490919083565b6040516101fb93929190611f1e565b61044f61044a366004611e0e565b610f9a565b60405190151581526020016101fb565b610467610fa7565b6040516101fb9190611f3e565b6101dc610482366004611e0e565b610fb3565b6101dc610495366004611e8d565b6110f6565b6101dc6104a8366004611ff9565b611129565b61044f6104bb366004611e0e565b60086020526000908152604090205460ff1681565b6101dc6113d5565b61044f6104e6366004611e0e565b60096020526000908152604090205460ff1681565b610311610509366004611e64565b6114e0565b6105166114ed565b600780546001600160a01b0319166001600160a01b0392909216919091179055565b604080516001600160a01b038085168252831660208201526000917f6ec35af0b709b54559046cce99f4f62031cc990ecbae37d60658503383a130f5910160405180910390a192915050565b61058c6114ed565b600680546001600160a01b0319166001600160a01b0392909216919091179055565b6105b66115a4565b6105c1600282611718565b6105de57604051634d87802160e01b815260040160405180910390fd5b6001600160a01b0381811660009081526001602081815260409283902083516101208101855281546001600160401b03811660608301908152600160401b82046001600160801b03166080840152600160c01b90910460ff16151560a083015293820154861660c08201526002820154861660e0820152600382015490951661010086015291845260048201549084018190526005909101549183019190915261069b57604051636fc2555d60e11b815260040160405180910390fd5b60006106a561173d565b60405163106126bf60e21b81526001600160a01b0385811660048301529192506000918316906341849afc9060240160206040518083038186803b1580156106ec57600080fd5b505afa158015610700573d6000803e3d6000fd5b505050506040513d601f19601f8201168201806040525081019061072491906120cc565b9050806107445760405163168536ad60e31b815260040160405180910390fd5b6000610865836001600160a01b0316636abf4c5e6040518163ffffffff1660e01b815260040160206040518083038186803b15801561078257600080fd5b505afa158015610796573d6000803e3d6000fd5b505050506040513d601f19601f820116820180604052508101906107ba91906120e5565b60405163d99d13f560e01b81526001600160a01b03868116600483015260248201869052919091169063d99d13f59060440160006040518083038186803b15801561080457600080fd5b505afa158015610818573d6000803e3d6000fd5b505050506040513d6000823e601f3d908101601f1916820160405261084091908101906121f4565b6060015160008151811061085657610856612314565b602002602001015160086117ba565b6001600160a01b0390951660009081526001602052604090206004019490945550505050565b600080600061089a60026117ec565b905060006108a886866117f6565b905060006108b46118f6565b600a5490915060005b84811015610bd75760006001816108d560028561193b565b6001600160a01b039081168252602080830193909352604091820160002082516101208101845281546001600160401b03811660608301818152600160401b83046001600160801b03166080850152600160c01b90920460ff16151560a08401526001840154851660c08401526002840154851660e08401526003840154909416610100830152815260048201549481019490945260050154918301919091529091504211156109bb578161098b60028261193b565b604051633682accf60e11b815260048101929092526001600160a01b031660248201526044015b60405180910390fd5b80516040808201516020830151925191516304fb63ed60e01b81529015156004820152602481018890526001600160801b0390921660448301526001600160401b0316606482015260009081906001600160a01b038716906304fb63ed90608401604080518083038186803b158015610a3357600080fd5b505afa158015610a47573d6000803e3d6000fd5b505050506040513d601f19601f82011682018060405250810190610a6b919061232a565b845160208101518151604092830151925163d98ac76960e01b8152600481018590526001600160801b0390921660248301526001600160401b03166044820152606481018490526084810189905290151560a48201529193509150600090819073__$eb86d565a3113b3c398b1080d0d395c3b4$__9063d98ac7699060c401604080518083038186803b158015610b0157600080fd5b505af4158015610b15573d6000803e3d6000fd5b505050506040513d601f19601f82011682018060405250810190610b39919061232a565b9092509050610b5283610b4c848c611947565b90611953565b9150600085604001518660200151610b6a9190612364565b9050670de0b6b3a7640000610b7f82846123a3565b610b89919061243e565b610b93908e612364565b9c50670de0b6b3a7640000610ba882856123a3565b610bb2919061243e565b610bbc908d61247a565b9b505050505050508080610bcf906124bb565b9150506108bd565b5060006040518060e0016040528088815260200160008152602001600081526020016000815260200187815260200142815260200185815250905080600460008b6001600160a01b03166001600160a01b0316815260200190815260200160002060008a6001600160a01b03166001600160a01b03168152602001908152602001600020600082015181600001556020820151816001015560408201518160020155606082015181600301556080820151816004015560a0820151816005015560c08201518160060155905050600760009054906101000a90046001600160a01b03166001600160a01b0316634da2df786040518163ffffffff1660e01b8152600401600060405180830381600087803b158015610cf457600080fd5b505af1158015610d08573d6000803e3d6000fd5b5050604080518a81526000602082018190528183018190526060820152608081018a905290516001600160a01b038c811694508d1692507fec5da05d5d82ced9f6369cfcc2f9d0cad94c0256c7ac3a81d6681bd57b2c33749181900360a00190a3505050505050505050565b610db46040518060e00160405280600081526020016000815260200160008152602001600081526020016000815260200160008152602001600081525090565b506001600160a01b038083166000908152600460208181526040808420948616845293815291839020835160e08101855281548152600182015493810193909352600281015493830193909352600383015460608301528201546080820152600582015460a082015260069091015460c08201525b92915050565b610e376115a4565b610e42600282611718565b610e5f57604051634d87802160e01b815260040160405180910390fd5b6001600160a01b038116600090815260016020526040902054426001600160401b039091161115610ea35760405163bbb2af5960e01b815260040160405180910390fd5b610eac81611968565b50565b610eb76114ed565b600b8190556040518181527fa539c7f409128b9cb1841b4de1124812a38aa82896631f6583550b55e950e1c1906020015b60405180910390a150565b610efb6114ed565b600080546001600160a01b0319166001600160a01b0383169081179091556040519081527f2f658b440c35314f52658ea8a740e05b284cdc84dc9ae01e891f21b8933e7cad90602001610ee8565b610f516114ed565b6001600160a01b03919091166000908152600860205260409020805460ff1916911515919091179055565b6000610f8860026117ec565b905090565b610f956114ed565b600a55565b6000610e29600283611718565b6060610f8860026119d1565b610fbb6114ed565b6000610fc760026117ec565b905060005b818110156110f1576000610fe160028361193b565b6001600160a01b0381811660009081526001602081815260409283902083516101208101855281546001600160401b03811660608301908152600160401b82046001600160801b03166080840152600160c01b90910460ff16151560a083015293820154861660c08201526002820154861660e0820152600382015486166101008201528381526004808301549382018490526005909201548186018190529451631b9ccdf760e31b815296975095948a169463dce66fb8946110aa94939290918991016124d6565b600060405180830381600087803b1580156110c457600080fd5b505af11580156110d8573d6000803e3d6000fd5b50505050505080806110e9906124bb565b915050610fcc565b505050565b6110fe6114ed565b6001600160a01b03919091166000908152600960205260409020805460ff1916911515919091179055565b6111316119de565b61113c600282611718565b6112355761114b6002826119fa565b50604080516060808201835286825260208083018781528385018781526001600160a01b03808816600090815260018086529088902096518051885496820151998201511515600160c01b0260ff60c01b196001600160801b03909b16600160401b026001600160c01b03199098166001600160401b039092169190911796909617989098169490941786559386015192850180549385166001600160a01b0319948516179055608086015160028601805491861691851691909117905560a090950151600385018054919094169216919091179091555160048201559051600590910155611296565b6001600160a01b0381166000908152600160205260408120600401805485929061126090849061247a565b90915550506001600160a01b0381166000908152600160205260408120600501805484929061129090849061247a565b90915550505b60008460000151856020015186604001516040516020016112f49392919060c09390931b6001600160c01b031916835260809190911b6fffffffffffffffffffffffffffffffff19166008830152151560f81b601882015260190190565b6040516020818303038152906040528051906020012090508360056000838152602001908152602001600020600082825461132f9190612364565b90915550506000818152600560205260408120805485929061135290849061247a565b9091555050600b5460008281526005602052604090205461137290611a0f565b1115611391576040516323dcfbfd60e01b815260040160405180910390fd5b7fa38c7fb25587f28150ab4e312ae71a3bbd5b9c69895d652c056c03c341c38ad8828585886040516113c6949392919061250a565b60405180910390a15050505050565b6113dd6115a4565b60006113e960026117ec565b905060005b8181101561148157426001600061140660028561193b565b6001600160a01b031681526020810191909152604001600020546001600160401b0316101561146f57600c61143c60028361193b565b81546001810183556000928352602090922090910180546001600160a01b0319166001600160a01b039092169190911790555b80611479816124bb565b9150506113ee565b5050600c5460005b818110156114d3576114c1600c82815481106114a7576114a7612314565b6000918252602090912001546001600160a01b0316611968565b806114cb816124bb565b915050611489565b50610eac600c6000611db7565b6000610e2960028361193b565b60008054906101000a90046001600160a01b03166001600160a01b0316630c340a246040518163ffffffff1660e01b815260040160206040518083038186803b15801561153957600080fd5b505afa15801561154d573d6000803e3d6000fd5b505050506040513d601f19601f8201168201806040525081019061157191906120e5565b6001600160a01b0316336001600160a01b0316146115a25760405163075fd2b160e01b815260040160405180910390fd5b565b3360009081526009602052604090205460ff16158015611659575060008054906101000a90046001600160a01b03166001600160a01b0316630c340a246040518163ffffffff1660e01b815260040160206040518083038186803b15801561160b57600080fd5b505afa15801561161f573d6000803e3d6000fd5b505050506040513d601f19601f8201168201806040525081019061164391906120e5565b6001600160a01b0316336001600160a01b031614155b80156116fa575060008054906101000a90046001600160a01b03166001600160a01b031663481c6a756040518163ffffffff1660e01b815260040160206040518083038186803b1580156116ac57600080fd5b505afa1580156116c0573d6000803e3d6000fd5b505050506040513d601f19601f820116820180604052508101906116e491906120e5565b6001600160a01b0316336001600160a01b031614155b156115a257604051631ea2564f60e31b815260040160405180910390fd5b6001600160a01b038116600090815260018301602052604081205415155b9392505050565b600654604080516303b4567b60e41b815290516000926001600160a01b031691633b4567b0916004808301926020929190829003018186803b15801561178257600080fd5b505afa158015611796573d6000803e3d6000fd5b505050506040513d601f19601f82011682018060405250810190610f8891906120e5565b600060128211156117ca57600080fd5b6117d582601261253f565b90506117e281600a61263a565b6117369084612646565b6000610e29825490565b60065460408051633a0df78d60e11b815290516000926001600160a01b03169163741bef1a916004808301926020929190829003018186803b15801561183b57600080fd5b505afa15801561184f573d6000803e3d6000fd5b505050506040513d601f19601f8201168201806040525081019061187391906120e5565b60405163051ce29b60e21b81526001600160a01b038581166004830152848116602483015291909116906314738a6c9060440160206040518083038186803b1580156118be57600080fd5b505afa1580156118d2573d6000803e3d6000fd5b505050506040513d601f19601f8201168201806040525081019061173691906120cc565b6006546040805163128e414b60e01b815290516000926001600160a01b03169163128e414b916004808301926020929190829003018186803b15801561178257600080fd5b60006117368383611a4b565b60006117368383611a75565b600061173683670de0b6b3a764000084611b37565b611973600282611c04565b506001600160a01b03166000908152600160208190526040822080546001600160c81b031916815590810180546001600160a01b03199081169091556002820180548216905560038201805490911690556004810182905560050155565b6060600061173683611c19565b3360009081526008602052604090205460ff166115a257600080fd5b6000611736836001600160a01b038416611c75565b6000600160ff1b821415611a3657604051631d0742e360e21b815260040160405180910390fd5b60008212611a445781610e29565b5060000390565b6000826000018281548110611a6257611a62612314565b9060005260206000200154905092915050565b60008080600019848609848602925082811083820303915050670de0b6b3a76400008110611ab95760405163698d9a0160e11b8152600481018290526024016109b2565b600080670de0b6b3a76400008688099150506706f05b59d3b1ffff811182611af35780670de0b6b3a7640000850401945050505050610e29565b620400008285030493909111909103600160ee1b02919091177faccb18165bd6fe31ae1cf318dc5b51eee0e1ba569b88cd74c1773b91fac106690201905092915050565b600080806000198587098587029250828110838203039150508060001415611b7257838281611b6857611b68612428565b0492505050611736565b838110611b9c57604051631dcf306360e21b815260048101829052602481018590526044016109b2565b600084868809600260036001881981018916988990049182028318808302840302808302840302808302840302808302840302808302840302918202909203026000889003889004909101858311909403939093029303949094049190911702949350505050565b6000611736836001600160a01b038416611cc4565b606081600001805480602002602001604051908101604052809291908181526020018280548015611c6957602002820191906000526020600020905b815481526020019060010190808311611c55575b50505050509050919050565b6000818152600183016020526040812054611cbc57508154600181810184556000848152602080822090930184905584548482528286019093526040902091909155610e29565b506000610e29565b60008181526001830160205260408120548015611dad576000611ce860018361253f565b8554909150600090611cfc9060019061253f565b9050818114611d61576000866000018281548110611d1c57611d1c612314565b9060005260206000200154905080876000018481548110611d3f57611d3f612314565b6000918252602080832090910192909255918252600188019052604090208390555b8554869080611d7257611d72612665565b600190038181906000526020600020016000905590558560010160008681526020019081526020016000206000905560019350505050610e29565b6000915050610e29565b5080546000825590600052602060002090810190610eac91905b80821115611de55760008155600101611dd1565b5090565b6001600160a01b0381168114610eac57600080fd5b8035611e0981611de9565b919050565b600060208284031215611e2057600080fd5b813561173681611de9565b60008060408385031215611e3e57600080fd5b8235611e4981611de9565b91506020830135611e5981611de9565b809150509250929050565b600060208284031215611e7657600080fd5b5035919050565b80358015158114611e0957600080fd5b60008060408385031215611ea057600080fd5b8235611eab81611de9565b9150611eb960208401611e7d565b90509250929050565b80516001600160401b031682526020808201516001600160801b0316908301526040808201511515908301526060808201516001600160a01b039081169184019190915260808083015182169084015260a09182015116910152565b6101008101611f2d8286611ec2565b60c082019390935260e00152919050565b6020808252825182820181905260009190848201906040850190845b81811015611f7f5783516001600160a01b031683529284019291840191600101611f5a565b50909695505050505050565b634e487b7160e01b600052604160045260246000fd5b60405160c081016001600160401b0381118282101715611fc357611fc3611f8b565b60405290565b604051601f8201601f191681016001600160401b0381118282101715611ff157611ff1611f8b565b604052919050565b60008060008084860361012081121561201157600080fd5b60c081121561201f57600080fd5b50612028611fa1565b85356001600160401b038116811461203f57600080fd5b815260208601356001600160801b038116811461205b57600080fd5b602082015261206c60408701611e7d565b604082015261207d60608701611dfe565b606082015261208e60808701611dfe565b608082015261209f60a08701611dfe565b60a0820152935060c0850135925060e085013591506120c16101008601611dfe565b905092959194509250565b6000602082840312156120de57600080fd5b5051919050565b6000602082840312156120f757600080fd5b815161173681611de9565b60006001600160401b0382111561211b5761211b611f8b565b5060051b60200190565b600082601f83011261213657600080fd5b8151602061214b61214683612102565b611fc9565b82815260059290921b8401810191818101908684111561216a57600080fd5b8286015b8481101561218e57805161218181611de9565b835291830191830161216e565b509695505050505050565b600082601f8301126121aa57600080fd5b815160206121ba61214683612102565b82815260059290921b840181019181810190868411156121d957600080fd5b8286015b8481101561218e57805183529183019183016121dd565b60006020828403121561220657600080fd5b81516001600160401b038082111561221d57600080fd5b9083019060c0828603121561223157600080fd5b612239611fa1565b82518281111561224857600080fd5b61225487828601612125565b82525060208301518281111561226957600080fd5b61227587828601612125565b60208301525060408301518281111561228d57600080fd5b61229987828601612125565b6040830152506060830151828111156122b157600080fd5b6122bd87828601612199565b6060830152506080830151828111156122d557600080fd5b6122e187828601612199565b60808301525060a0830151828111156122f957600080fd5b61230587828601612199565b60a08301525095945050505050565b634e487b7160e01b600052603260045260246000fd5b6000806040838503121561233d57600080fd5b505080516020909101519092909150565b634e487b7160e01b600052601160045260246000fd5b60008083128015600160ff1b8501841216156123825761238261234e565b6001600160ff1b038401831381161561239d5761239d61234e565b50500390565b60006001600160ff1b03818413828413808216868404861116156123c9576123c961234e565b600160ff1b60008712828116878305891216156123e8576123e861234e565b600087129250878205871284841616156124045761240461234e565b8785058712818416161561241a5761241a61234e565b505050929093029392505050565b634e487b7160e01b600052601260045260246000fd5b60008261245b57634e487b7160e01b600052601260045260246000fd5b600160ff1b8214600019841416156124755761247561234e565b500590565b600080821280156001600160ff1b038490038513161561249c5761249c61234e565b600160ff1b83900384128116156124b5576124b561234e565b50500190565b60006000198214156124cf576124cf61234e565b5060010190565b61012081016124e58287611ec2565b60c082019490945260e08101929092526001600160a01b031661010090910152919050565b6001600160a01b0385168152602081018490526040810183905261012081016125366060830184611ec2565b95945050505050565b6000828210156125515761255161234e565b500390565b600181815b808511156125915781600019048211156125775761257761234e565b8085161561258457918102915b93841c939080029061255b565b509250929050565b6000826125a857506001610e29565b816125b557506000610e29565b81600181146125cb57600281146125d5576125f1565b6001915050610e29565b60ff8411156125e6576125e661234e565b50506001821b610e29565b5060208310610133831016604e8410600b8410161715612614575081810a610e29565b61261e8383612556565b80600019048211156126325761263261234e565b029392505050565b60006117368383612599565b60008160001904831182151516156126605761266061234e565b500290565b634e487b7160e01b600052603160045260246000fdfea26469706673582212206c7f8664bfca177f7e8791091a5ceb3c2a417d036ca0ed3aed809254612810b564736f6c63430008090033",
    "linkReferences": {
      "contracts/libraries/BlackScholes.sol": {
        "BlackScholes": [
          {
            "start": 2992,
            "length": 20
          }
        ]
      }
    }
  },
  "methodIdentifiers": {
    "accountLiquidatedSeries(address)": "13165894",
    "addressAtIndexInSet(uint256)": "f02de0e9",
    "addressSetLength()": "a31697ac",
    "authority()": "bf7e214f",
    "cleanLooperManually(address)": "5053a962",
    "fulfill(address,address)": "3e4a5c83",
    "getAddressSet()": "ce0914e6",
    "getPortfolioValues(address,address)": "4e133d4d",
    "handler(address)": "dfef605e",
    "isAddressInSet(address)": "c646240c",
    "keeper(address)": "e8cf8608",
    "liquidityPool()": "665a11ca",
    "maxNetDhvExposure()": "06bd74b5",
    "migrate(address)": "ce5494bb",
    "netDhvExposure(bytes32)": "21e04dd4",
    "protocol()": "8ce74426",
    "requestPortfolioData(address,address)": "05c25390",
    "rfr()": "2ab6bfaf",
    "setAuthority(address)": "7a9e5e4b",
    "setHandler(address,bool)": "9cb7de4b",
    "setKeeper(address,bool)": "d1b9e853",
    "setLiquidityPool(address)": "01877020",
    "setMaxNetDhvExposure(uint256)": "5f098428",
    "setProtocol(address)": "0a9d793d",
    "setRFR(uint256)": "a44b6edc",
    "storesForAddress(address)": "c238f68d",
    "syncLooper()": "e138e2e3",
    "updateStores((uint64,uint128,bool,address,address,address),int256,int256,address)": "dce66fb8"
  },
  "id": 1
}