{
  "abi": [
    {
      "inputs": [
        {
          "internalType": "address",
          "name": "_authority",
          "type": "address"
        },
        {
          "internalType": "address",
          "name": "_protocol",
          "type": "address"
        },
        {
          "internalType": "address",
          "name": "_liquidityPool",
          "type": "address"
        },
        {
          "internalType": "address",
          "name": "_pricer",
          "type": "address"
        },
        {
          "internalType": "address",
          "name": "_addressbook",
          "type": "address"
        },
        {
          "internalType": "address",
          "name": "_swapRouter",
          "type": "address"
        },
        {
          "internalType": "address",
          "name": "_feeRecipient",
          "type": "address"
        },
        {
          "internalType": "address",
          "name": "_catalogue",
          "type": "address"
        }
      ],
      "stateMutability": "nonpayable",
      "type": "constructor"
    },
    {
      "inputs": [],
      "name": "CloseSizeTooLarge",
      "type": "error"
    },
    {
      "inputs": [],
      "name": "CollateralAssetInvalid",
      "type": "error"
    },
    {
      "inputs": [],
      "name": "ForbiddenAction",
      "type": "error"
    },
    {
      "inputs": [],
      "name": "NonExistentOtoken",
      "type": "error"
    },
    {
      "inputs": [],
      "name": "NonWhitelistedOtoken",
      "type": "error"
    },
    {
      "inputs": [],
      "name": "NothingToClose",
      "type": "error"
    },
    {
      "inputs": [],
      "name": "OperatorNotApproved",
      "type": "error"
    },
    {
      "inputs": [],
      "name": "OptionExpiryInvalid",
      "type": "error"
    },
    {
      "inputs": [],
      "name": "PRBMathSD59x18__DivInputTooSmall",
      "type": "error"
    },
    {
      "inputs": [
        {
          "internalType": "uint256",
          "name": "rAbs",
          "type": "uint256"
        }
      ],
      "name": "PRBMathSD59x18__DivOverflow",
      "type": "error"
    },
    {
      "inputs": [],
      "name": "PRBMathSD59x18__MulInputTooSmall",
      "type": "error"
    },
    {
      "inputs": [
        {
          "internalType": "uint256",
          "name": "rAbs",
          "type": "uint256"
        }
      ],
      "name": "PRBMathSD59x18__MulOverflow",
      "type": "error"
    },
    {
      "inputs": [
        {
          "internalType": "uint256",
          "name": "prod1",
          "type": "uint256"
        }
      ],
      "name": "PRBMath__MulDivFixedPointOverflow",
      "type": "error"
    },
    {
      "inputs": [
        {
          "internalType": "uint256",
          "name": "prod1",
          "type": "uint256"
        },
        {
          "internalType": "uint256",
          "name": "denominator",
          "type": "uint256"
        }
      ],
      "name": "PRBMath__MulDivOverflow",
      "type": "error"
    },
    {
      "inputs": [],
      "name": "PoolFeeNotSet",
      "type": "error"
    },
    {
      "inputs": [],
      "name": "PremiumTooSmall",
      "type": "error"
    },
    {
      "inputs": [],
      "name": "SeriesNotBuyable",
      "type": "error"
    },
    {
      "inputs": [],
      "name": "SeriesNotSellable",
      "type": "error"
    },
    {
      "inputs": [],
      "name": "StrikeAssetInvalid",
      "type": "error"
    },
    {
      "inputs": [],
      "name": "TokenImbalance",
      "type": "error"
    },
    {
      "inputs": [],
      "name": "TradeTooLarge",
      "type": "error"
    },
    {
      "inputs": [],
      "name": "TradeTooSmall",
      "type": "error"
    },
    {
      "inputs": [],
      "name": "UNAUTHORIZED",
      "type": "error"
    },
    {
      "inputs": [],
      "name": "UnapprovedSeries",
      "type": "error"
    },
    {
      "inputs": [],
      "name": "UnauthorisedSender",
      "type": "error"
    },
    {
      "inputs": [],
      "name": "UnderlyingAssetInvalid",
      "type": "error"
    },
    {
      "inputs": [],
      "name": "WithdrawExceedsLiquidity",
      "type": "error"
    },
    {
      "anonymous": false,
      "inputs": [
        {
          "indexed": false,
          "internalType": "contract IAuthority",
          "name": "authority",
          "type": "address"
        }
      ],
      "name": "AuthorityUpdated",
      "type": "event"
    },
    {
      "anonymous": false,
      "inputs": [
        {
          "indexed": true,
          "internalType": "address",
          "name": "collateral",
          "type": "address"
        },
        {
          "indexed": false,
          "internalType": "bool",
          "name": "isPut",
          "type": "bool"
        },
        {
          "indexed": false,
          "internalType": "bool",
          "name": "isApproved",
          "type": "bool"
        }
      ],
      "name": "CollateralApprovalChanged",
      "type": "event"
    },
    {
      "anonymous": false,
      "inputs": [
        {
          "indexed": true,
          "internalType": "address",
          "name": "series",
          "type": "address"
        },
        {
          "indexed": true,
          "internalType": "address",
          "name": "buyer",
          "type": "address"
        },
        {
          "indexed": false,
          "internalType": "uint256",
          "name": "optionAmount",
          "type": "uint256"
        }
      ],
      "name": "OptionsBought",
      "type": "event"
    },
    {
      "anonymous": false,
      "inputs": [
        {
          "indexed": true,
          "internalType": "address",
          "name": "series",
          "type": "address"
        }
      ],
      "name": "OptionsIssued",
      "type": "event"
    },
    {
      "anonymous": false,
      "inputs": [
        {
          "indexed": true,
          "internalType": "address",
          "name": "series",
          "type": "address"
        },
        {
          "indexed": false,
          "internalType": "uint256",
          "name": "optionAmount",
          "type": "uint256"
        },
        {
          "indexed": false,
          "internalType": "uint256",
          "name": "redeemAmount",
          "type": "uint256"
        },
        {
          "indexed": false,
          "internalType": "address",
          "name": "redeemAsset",
          "type": "address"
        }
      ],
      "name": "OptionsRedeemed",
      "type": "event"
    },
    {
      "anonymous": false,
      "inputs": [
        {
          "indexed": true,
          "internalType": "address",
          "name": "series",
          "type": "address"
        },
        {
          "indexed": true,
          "internalType": "address",
          "name": "seller",
          "type": "address"
        },
        {
          "indexed": false,
          "internalType": "uint256",
          "name": "optionAmount",
          "type": "uint256"
        }
      ],
      "name": "OptionsSold",
      "type": "event"
    },
    {
      "anonymous": false,
      "inputs": [
        {
          "indexed": false,
          "internalType": "address",
          "name": "newOptionExchange",
          "type": "address"
        },
        {
          "indexed": false,
          "internalType": "address",
          "name": "otoken",
          "type": "address"
        },
        {
          "indexed": false,
          "internalType": "uint256",
          "name": "amount",
          "type": "uint256"
        }
      ],
      "name": "OtokenMigrated",
      "type": "event"
    },
    {
      "anonymous": false,
      "inputs": [
        {
          "indexed": false,
          "internalType": "address",
          "name": "account",
          "type": "address"
        }
      ],
      "name": "Paused",
      "type": "event"
    },
    {
      "anonymous": false,
      "inputs": [
        {
          "indexed": false,
          "internalType": "uint256",
          "name": "redeemAmount",
          "type": "uint256"
        },
        {
          "indexed": false,
          "internalType": "address",
          "name": "redeemAsset",
          "type": "address"
        },
        {
          "indexed": false,
          "internalType": "address",
          "name": "recipient",
          "type": "address"
        }
      ],
      "name": "RedemptionSent",
      "type": "event"
    },
    {
      "anonymous": false,
      "inputs": [
        {
          "indexed": false,
          "internalType": "address",
          "name": "account",
          "type": "address"
        }
      ],
      "name": "Unpaused",
      "type": "event"
    },
    {
      "inputs": [
        {
          "components": [
            {
              "internalType": "uint64",
              "name": "expiration",
              "type": "uint64"
            },
            {
              "internalType": "uint128",
              "name": "strike",
              "type": "uint128"
            },
            {
              "internalType": "bool",
              "name": "isPut",
              "type": "bool"
            },
            {
              "internalType": "address",
              "name": "underlying",
              "type": "address"
            },
            {
              "internalType": "address",
              "name": "strikeAsset",
              "type": "address"
            },
            {
              "internalType": "address",
              "name": "collateral",
              "type": "address"
            }
          ],
          "internalType": "struct Types.OptionSeries",
          "name": "optionSeries",
          "type": "tuple"
        },
        {
          "internalType": "uint128",
          "name": "strikeDecimalConverted",
          "type": "uint128"
        },
        {
          "internalType": "bool",
          "name": "isSell",
          "type": "bool"
        }
      ],
      "name": "_checkHash",
      "outputs": [
        {
          "internalType": "bytes32",
          "name": "oHash",
          "type": "bytes32"
        }
      ],
      "stateMutability": "view",
      "type": "function"
    },
    {
      "inputs": [],
      "name": "addressbook",
      "outputs": [
        {
          "internalType": "contract AddressBookInterface",
          "name": "",
          "type": "address"
        }
      ],
      "stateMutability": "view",
      "type": "function"
    },
    {
      "inputs": [
        {
          "internalType": "address",
          "name": "",
          "type": "address"
        },
        {
          "internalType": "bool",
          "name": "",
          "type": "bool"
        }
      ],
      "name": "approvedCollateral",
      "outputs": [
        {
          "internalType": "bool",
          "name": "",
          "type": "bool"
        }
      ],
      "stateMutability": "view",
      "type": "function"
    },
    {
      "inputs": [],
      "name": "authority",
      "outputs": [
        {
          "internalType": "contract IAuthority",
          "name": "",
          "type": "address"
        }
      ],
      "stateMutability": "view",
      "type": "function"
    },
    {
      "inputs": [],
      "name": "catalogue",
      "outputs": [
        {
          "internalType": "contract OptionCatalogue",
          "name": "",
          "type": "address"
        }
      ],
      "stateMutability": "view",
      "type": "function"
    },
    {
      "inputs": [
        {
          "internalType": "address",
          "name": "collateral",
          "type": "address"
        },
        {
          "internalType": "bool",
          "name": "isPut",
          "type": "bool"
        },
        {
          "internalType": "bool",
          "name": "isApproved",
          "type": "bool"
        }
      ],
      "name": "changeApprovedCollateral",
      "outputs": [],
      "stateMutability": "nonpayable",
      "type": "function"
    },
    {
      "inputs": [],
      "name": "collateralAsset",
      "outputs": [
        {
          "internalType": "address",
          "name": "",
          "type": "address"
        }
      ],
      "stateMutability": "view",
      "type": "function"
    },
    {
      "inputs": [
        {
          "components": [
            {
              "internalType": "uint64",
              "name": "expiration",
              "type": "uint64"
            },
            {
              "internalType": "uint128",
              "name": "strike",
              "type": "uint128"
            },
            {
              "internalType": "bool",
              "name": "isPut",
              "type": "bool"
            },
            {
              "internalType": "address",
              "name": "underlying",
              "type": "address"
            },
            {
              "internalType": "address",
              "name": "strikeAsset",
              "type": "address"
            },
            {
              "internalType": "address",
              "name": "collateral",
              "type": "address"
            }
          ],
          "internalType": "struct Types.OptionSeries",
          "name": "optionSeries",
          "type": "tuple"
        }
      ],
      "name": "createOtoken",
      "outputs": [
        {
          "internalType": "address",
          "name": "series",
          "type": "address"
        }
      ],
      "stateMutability": "nonpayable",
      "type": "function"
    },
    {
      "inputs": [],
      "name": "feeRecipient",
      "outputs": [
        {
          "internalType": "address",
          "name": "",
          "type": "address"
        }
      ],
      "stateMutability": "view",
      "type": "function"
    },
    {
      "inputs": [
        {
          "internalType": "uint256",
          "name": "strikePrice",
          "type": "uint256"
        },
        {
          "internalType": "address",
          "name": "collateral",
          "type": "address"
        }
      ],
      "name": "formatStrikePrice",
      "outputs": [
        {
          "internalType": "uint256",
          "name": "",
          "type": "uint256"
        }
      ],
      "stateMutability": "view",
      "type": "function"
    },
    {
      "inputs": [],
      "name": "getDelta",
      "outputs": [
        {
          "internalType": "int256",
          "name": "delta",
          "type": "int256"
        }
      ],
      "stateMutability": "view",
      "type": "function"
    },
    {
      "inputs": [
        {
          "internalType": "address",
          "name": "seriesAddress",
          "type": "address"
        },
        {
          "components": [
            {
              "internalType": "uint64",
              "name": "expiration",
              "type": "uint64"
            },
            {
              "internalType": "uint128",
              "name": "strike",
              "type": "uint128"
            },
            {
              "internalType": "bool",
              "name": "isPut",
              "type": "bool"
            },
            {
              "internalType": "address",
              "name": "underlying",
              "type": "address"
            },
            {
              "internalType": "address",
              "name": "strikeAsset",
              "type": "address"
            },
            {
              "internalType": "address",
              "name": "collateral",
              "type": "address"
            }
          ],
          "internalType": "struct Types.OptionSeries",
          "name": "optionSeries",
          "type": "tuple"
        }
      ],
      "name": "getOptionDetails",
      "outputs": [
        {
          "internalType": "address",
          "name": "",
          "type": "address"
        },
        {
          "components": [
            {
              "internalType": "uint64",
              "name": "expiration",
              "type": "uint64"
            },
            {
              "internalType": "uint128",
              "name": "strike",
              "type": "uint128"
            },
            {
              "internalType": "bool",
              "name": "isPut",
              "type": "bool"
            },
            {
              "internalType": "address",
              "name": "underlying",
              "type": "address"
            },
            {
              "internalType": "address",
              "name": "strikeAsset",
              "type": "address"
            },
            {
              "internalType": "address",
              "name": "collateral",
              "type": "address"
            }
          ],
          "internalType": "struct Types.OptionSeries",
          "name": "",
          "type": "tuple"
        },
        {
          "internalType": "uint128",
          "name": "",
          "type": "uint128"
        }
      ],
      "stateMutability": "view",
      "type": "function"
    },
    {
      "inputs": [],
      "name": "getPoolDenominatedValue",
      "outputs": [
        {
          "internalType": "uint256",
          "name": "",
          "type": "uint256"
        }
      ],
      "stateMutability": "view",
      "type": "function"
    },
    {
      "inputs": [],
      "name": "getPortfolioValuesFeed",
      "outputs": [
        {
          "internalType": "contract IAlphaPortfolioValuesFeed",
          "name": "",
          "type": "address"
        }
      ],
      "stateMutability": "view",
      "type": "function"
    },
    {
      "inputs": [
        {
          "internalType": "int256",
          "name": "_delta",
          "type": "int256"
        }
      ],
      "name": "hedgeDelta",
      "outputs": [
        {
          "internalType": "int256",
          "name": "",
          "type": "int256"
        }
      ],
      "stateMutability": "nonpayable",
      "type": "function"
    },
    {
      "inputs": [
        {
          "internalType": "address",
          "name": "",
          "type": "address"
        },
        {
          "internalType": "address",
          "name": "",
          "type": "address"
        }
      ],
      "name": "heldTokens",
      "outputs": [
        {
          "internalType": "uint256",
          "name": "",
          "type": "uint256"
        }
      ],
      "stateMutability": "view",
      "type": "function"
    },
    {
      "inputs": [],
      "name": "liquidityPool",
      "outputs": [
        {
          "internalType": "contract ILiquidityPool",
          "name": "",
          "type": "address"
        }
      ],
      "stateMutability": "view",
      "type": "function"
    },
    {
      "inputs": [],
      "name": "maxTradeSize",
      "outputs": [
        {
          "internalType": "uint256",
          "name": "",
          "type": "uint256"
        }
      ],
      "stateMutability": "view",
      "type": "function"
    },
    {
      "inputs": [
        {
          "internalType": "address",
          "name": "newOptionExchange",
          "type": "address"
        },
        {
          "internalType": "address[]",
          "name": "otokens",
          "type": "address[]"
        }
      ],
      "name": "migrateOtokens",
      "outputs": [],
      "stateMutability": "nonpayable",
      "type": "function"
    },
    {
      "inputs": [],
      "name": "minTradeSize",
      "outputs": [
        {
          "internalType": "uint256",
          "name": "",
          "type": "uint256"
        }
      ],
      "stateMutability": "view",
      "type": "function"
    },
    {
      "inputs": [
        {
          "components": [
            {
              "internalType": "enum CombinedActions.OperationType",
              "name": "operation",
              "type": "uint8"
            },
            {
              "components": [
                {
                  "internalType": "uint256",
                  "name": "actionType",
                  "type": "uint256"
                },
                {
                  "internalType": "address",
                  "name": "owner",
                  "type": "address"
                },
                {
                  "internalType": "address",
                  "name": "secondAddress",
                  "type": "address"
                },
                {
                  "internalType": "address",
                  "name": "asset",
                  "type": "address"
                },
                {
                  "internalType": "uint256",
                  "name": "vaultId",
                  "type": "uint256"
                },
                {
                  "internalType": "uint256",
                  "name": "amount",
                  "type": "uint256"
                },
                {
                  "components": [
                    {
                      "internalType": "uint64",
                      "name": "expiration",
                      "type": "uint64"
                    },
                    {
                      "internalType": "uint128",
                      "name": "strike",
                      "type": "uint128"
                    },
                    {
                      "internalType": "bool",
                      "name": "isPut",
                      "type": "bool"
                    },
                    {
                      "internalType": "address",
                      "name": "underlying",
                      "type": "address"
                    },
                    {
                      "internalType": "address",
                      "name": "strikeAsset",
                      "type": "address"
                    },
                    {
                      "internalType": "address",
                      "name": "collateral",
                      "type": "address"
                    }
                  ],
                  "internalType": "struct Types.OptionSeries",
                  "name": "optionSeries",
                  "type": "tuple"
                },
                {
                  "internalType": "uint256",
                  "name": "index",
                  "type": "uint256"
                },
                {
                  "internalType": "bytes",
                  "name": "data",
                  "type": "bytes"
                }
              ],
              "internalType": "struct CombinedActions.ActionArgs[]",
              "name": "operationQueue",
              "type": "tuple[]"
            }
          ],
          "internalType": "struct CombinedActions.OperationProcedures[]",
          "name": "_operationProcedures",
          "type": "tuple[]"
        }
      ],
      "name": "operate",
      "outputs": [],
      "stateMutability": "nonpayable",
      "type": "function"
    },
    {
      "inputs": [],
      "name": "pause",
      "outputs": [],
      "stateMutability": "nonpayable",
      "type": "function"
    },
    {
      "inputs": [],
      "name": "paused",
      "outputs": [
        {
          "internalType": "bool",
          "name": "",
          "type": "bool"
        }
      ],
      "stateMutability": "view",
      "type": "function"
    },
    {
      "inputs": [
        {
          "internalType": "address",
          "name": "",
          "type": "address"
        }
      ],
      "name": "poolFees",
      "outputs": [
        {
          "internalType": "uint24",
          "name": "",
          "type": "uint24"
        }
      ],
      "stateMutability": "view",
      "type": "function"
    },
    {
      "inputs": [],
      "name": "pricer",
      "outputs": [
        {
          "internalType": "contract BeyondPricer",
          "name": "",
          "type": "address"
        }
      ],
      "stateMutability": "view",
      "type": "function"
    },
    {
      "inputs": [],
      "name": "protocol",
      "outputs": [
        {
          "internalType": "contract Protocol",
          "name": "",
          "type": "address"
        }
      ],
      "stateMutability": "view",
      "type": "function"
    },
    {
      "inputs": [
        {
          "internalType": "address[]",
          "name": "_series",
          "type": "address[]"
        }
      ],
      "name": "redeem",
      "outputs": [],
      "stateMutability": "nonpayable",
      "type": "function"
    },
    {
      "inputs": [
        {
          "internalType": "contract IAuthority",
          "name": "_newAuthority",
          "type": "address"
        }
      ],
      "name": "setAuthority",
      "outputs": [],
      "stateMutability": "nonpayable",
      "type": "function"
    },
    {
      "inputs": [
        {
          "internalType": "address",
          "name": "_feeRecipient",
          "type": "address"
        }
      ],
      "name": "setFeeRecipient",
      "outputs": [],
      "stateMutability": "nonpayable",
      "type": "function"
    },
    {
      "inputs": [
        {
          "internalType": "address",
          "name": "_catalogue",
          "type": "address"
        }
      ],
      "name": "setOptionCatalogue",
      "outputs": [],
      "stateMutability": "nonpayable",
      "type": "function"
    },
    {
      "inputs": [
        {
          "internalType": "address",
          "name": "asset",
          "type": "address"
        },
        {
          "internalType": "uint24",
          "name": "fee",
          "type": "uint24"
        }
      ],
      "name": "setPoolFee",
      "outputs": [],
      "stateMutability": "nonpayable",
      "type": "function"
    },
    {
      "inputs": [
        {
          "internalType": "address",
          "name": "_pricer",
          "type": "address"
        }
      ],
      "name": "setPricer",
      "outputs": [],
      "stateMutability": "nonpayable",
      "type": "function"
    },
    {
      "inputs": [
        {
          "internalType": "uint256",
          "name": "_minTradeSize",
          "type": "uint256"
        },
        {
          "internalType": "uint256",
          "name": "_maxTradeSize",
          "type": "uint256"
        }
      ],
      "name": "setTradeSizeLimits",
      "outputs": [],
      "stateMutability": "nonpayable",
      "type": "function"
    },
    {
      "inputs": [],
      "name": "strikeAsset",
      "outputs": [
        {
          "internalType": "address",
          "name": "",
          "type": "address"
        }
      ],
      "stateMutability": "view",
      "type": "function"
    },
    {
      "inputs": [],
      "name": "swapRouter",
      "outputs": [
        {
          "internalType": "contract ISwapRouter",
          "name": "",
          "type": "address"
        }
      ],
      "stateMutability": "view",
      "type": "function"
    },
    {
      "inputs": [],
      "name": "underlyingAsset",
      "outputs": [
        {
          "internalType": "address",
          "name": "",
          "type": "address"
        }
      ],
      "stateMutability": "view",
      "type": "function"
    },
    {
      "inputs": [],
      "name": "unpause",
      "outputs": [],
      "stateMutability": "nonpayable",
      "type": "function"
    },
    {
      "inputs": [],
      "name": "update",
      "outputs": [
        {
          "internalType": "uint256",
          "name": "",
          "type": "uint256"
        }
      ],
      "stateMutability": "pure",
      "type": "function"
    },
    {
      "inputs": [
        {
          "internalType": "uint256",
          "name": "_amount",
          "type": "uint256"
        }
      ],
      "name": "withdraw",
      "outputs": [
        {
          "internalType": "uint256",
          "name": "",
          "type": "uint256"
        }
      ],
      "stateMutability": "nonpayable",
      "type": "function"
    }
  ],
  "bytecode": {
    "object": "0x610160604052683635c9adc5dea00000600655662386f26fc100006007553480156200002a57600080fd5b506040516200628f3803806200628f8339810160408190526200004d9162000424565b600080546001600160a81b0319166101006001600160a01b038b169081029190911790915560405190815288907f2f658b440c35314f52658ea8a740e05b284cdc84dc9ae01e891f21b8933e7cad9060200160405180910390a150600180556001600160a01b0380881660a052861660808190526040805163555d766b60e11b8152905163aabaecd691600480820192602092909190829003018186803b158015620000f857600080fd5b505afa1580156200010d573d6000803e3d6000fd5b505050506040513d601f19601f82011682018060405250810190620001339190620004cc565b6001600160a01b0316610100816001600160a01b0316815250506080516001600160a01b0316637158da7c6040518163ffffffff1660e01b815260040160206040518083038186803b1580156200018957600080fd5b505afa1580156200019e573d6000803e3d6000fd5b505050506040513d601f19601f82011682018060405250810190620001c49190620004cc565b6001600160a01b031660e0816001600160a01b0316815250506080516001600160a01b03166317d69bc86040518163ffffffff1660e01b815260040160206040518083038186803b1580156200021957600080fd5b505afa1580156200022e573d6000803e3d6000fd5b505050506040513d601f19601f82011682018060405250810190620002549190620004cc565b6001600160a01b0390811660c0528481166101205283811661014052600280546001600160a01b031990811688841617909155600580549091168383161790558216620002a057600080fd5b600480546001600160a01b0319166001600160a01b038481169190911790915561010051811660008181526008602081815260408084206001808652908352818520805460ff199081168317909155858052828620805482168317905560e051909716855292825280842083855282528084208054871684179055838052928390208054909516821790945581518181529384015290916000805160206200626f833981519152910160405180910390a2610100516040805160008152600160208201526001600160a01b03909216916000805160206200626f833981519152910160405180910390a260e05160408051600180825260208201526001600160a01b03909216916000805160206200626f833981519152910160405180910390a260e0516040805160008152600160208201526001600160a01b03909216916000805160206200626f833981519152910160405180910390a25050505050505050620004f1565b80516001600160a01b03811681146200041f57600080fd5b919050565b600080600080600080600080610100898b0312156200044257600080fd5b6200044d8962000407565b97506200045d60208a0162000407565b96506200046d60408a0162000407565b95506200047d60608a0162000407565b94506200048d60808a0162000407565b93506200049d60a08a0162000407565b9250620004ad60c08a0162000407565b9150620004bd60e08a0162000407565b90509295985092959890939650565b600060208284031215620004df57600080fd5b620004ea8262000407565b9392505050565b60805160a05160c05160e051610100516101205161014051615bbe620006b160003960008181610537015281816116ad0152611ec40152600081816103650152818161085401528181610b0c01528181610b9d015281816125ca015281816127040152612a2f0152600081816104890152818161073b01528181610dcf01528181610e0c01528181610e5b01528181610ef601528181610f4501528181611491015281816118b90152818161190f01528181611e1601528181612139015281816131260152818161376001528181613e6901528181613f2f01528181613fa601528181613ffe0152818161403b015281816141cb0152818161421f01528181614277015281816142dd01528181614331015261436501526000818161038c0152818161137a0152614147015260008181610278015281816113d0015261416f015260008181610422015281816115970152611fca01526000818161033e015281816106d001528181610e2d01528181610e8c01528181610f1701528181610f76015281816132690152818161384701528181613e9101528181613f50015281816143860152818161445e015281816144af015261456f0152615bbe6000f3fe608060405234801561001057600080fd5b506004361061023d5760003560e01c80638ce744261161013b578063c12c5629116100b8578063e74b981b1161007c578063e74b981b14610584578063eb2d785514610597578063f0b20dcd146105aa578063f2476f3d146105bd578063fbaac115146105df57600080fd5b8063c12c562914610517578063c221bd141461052a578063c31c9c0714610532578063c549176e14610457578063e17b25d71461055957600080fd5b8063aabaecd6116100ff578063aabaecd614610484578063af3d2c67146104ab578063b7aa436d146104be578063be6e9161146104c6578063bf7e214f146104ff57600080fd5b80638ce744261461041d5780638d75301714610444578063a2e6204514610457578063a3895ce61461045e578063a6138ed91461047157600080fd5b80635c975abb116101c95780637781476f1161018d5780637781476f146103ae57806378af7bd3146103c15780637a9e5e4b146103ef5780638456cb59146104025780638730b2051461040a57600080fd5b80635c975abb146103195780636155be5914610330578063665a11ca1461033957806370dc320c146103605780637158da7c1461038757600080fd5b806324e4013a1161021057806324e4013a146102c557806329390370146102d85780632e1a7d4d146102eb5780633f4ba83a146102fe578063469048401461030657600080fd5b806310fa79e21461024257806314b6c4c61461025e57806317d69bc8146102735780632179a43f146102b2575b600080fd5b61024b60065481565b6040519081526020015b60405180910390f35b61027161026c366004614f08565b6105f2565b005b61029a7f000000000000000000000000000000000000000000000000000000000000000081565b6040516001600160a01b039091168152602001610255565b6102716102c036600461515f565b61066f565b60055461029a906001600160a01b031681565b6102716102e636600461515f565b610699565b61024b6102f936600461517c565b6106c3565b610271610806565b60045461029a906001600160a01b031681565b60005460ff165b6040519015158152602001610255565b61024b60075481565b61029a7f000000000000000000000000000000000000000000000000000000000000000081565b61029a7f000000000000000000000000000000000000000000000000000000000000000081565b61029a7f000000000000000000000000000000000000000000000000000000000000000081565b61029a6103bc366004615195565b610818565b6103206103cf3660046151b1565b600860209081526000928352604080842090915290825290205460ff1681565b6102716103fd36600461515f565b6109ae565b610271610a12565b610271610418366004615259565b610a22565b61029a7f000000000000000000000000000000000000000000000000000000000000000081565b61027161045236600461528d565b610fe4565b600061024b565b61024b61046c3660046152dc565b611142565b60025461029a906001600160a01b031681565b61029a7f000000000000000000000000000000000000000000000000000000000000000081565b61024b6104b9366004615301565b611223565b61024b611479565b6104eb6104d436600461515f565b60036020526000908152604090205462ffffff1681565b60405162ffffff9091168152602001610255565b60005461029a9061010090046001600160a01b031681565b61027161052536600461534c565b611518565b61029a611593565b61029a7f000000000000000000000000000000000000000000000000000000000000000081565b61024b61056736600461538c565b600a60209081526000928352604080842090915290825290205481565b61027161059236600461515f565b611626565b6102716105a53660046153ba565b611663565b6102716105b83660046153dc565b611676565b6105d06105cb366004615412565b6116d8565b604051610255939291906154a4565b61024b6105ed36600461517c565b611703565b6002600154141561064a5760405162461bcd60e51b815260206004820152601f60248201527f5265656e7472616e637947756172643a207265656e7472616e742063616c6c0060448201526064015b60405180910390fd5b600260015561065761170a565b61066081611750565b6106686117e8565b5060018055565b6106776119d0565b600580546001600160a01b0319166001600160a01b0392909216919091179055565b6106a16119d0565b600280546001600160a01b0319166001600160a01b0392909216919091179055565b6000336001600160a01b037f000000000000000000000000000000000000000000000000000000000000000016146107265760405162461bcd60e51b8152602060048201526006602482015265085d985d5b1d60d21b6044820152606401610641565b6040516370a0823160e01b81523060048201527f0000000000000000000000000000000000000000000000000000000000000000906000906001600160a01b038316906370a082319060240160206040518083038186803b15801561078a57600080fd5b505afa15801561079e573d6000803e3d6000fd5b505050506040513d601f19601f820116820180604052508101906107c291906154d9565b9050806107d3575060009392505050565b8084116107ed576107e5823386611a87565b509192915050565b6107f8823383611a87565b9392505050565b5050919050565b61080e611b00565b610816611c41565b565b60008061083683602001516001600160801b03168460a00151611142565b905073__$a949af228b7bd2e36efc48dbaaf0130ade$__630e4e99e37f00000000000000000000000000000000000000000000000000000000000000006001600160a01b0316631ffaf0db6040518163ffffffff1660e01b815260040160206040518083038186803b1580156108ab57600080fd5b505afa1580156108bf573d6000803e3d6000fd5b505050506040513d601f19601f820116820180604052508101906108e391906154f2565b60a08601516060870151608088015188516040808b015190516001600160e01b031960e089901b1681526001600160a01b03968716600482015294861660248601529285166044850152931660648301526001600160801b03861660848301526001600160401b0390921660a482015290151560c482015260e40160206040518083038186803b15801561097657600080fd5b505af415801561098a573d6000803e3d6000fd5b505050506040513d601f19601f820116820180604052508101906107f891906154f2565b6109b66119d0565b60008054610100600160a81b0319166101006001600160a01b038416908102919091179091556040519081527f2f658b440c35314f52658ea8a740e05b284cdc84dc9ae01e891f21b8933e7cad9060200160405180910390a150565b610a1a611b00565b610816611c93565b610a2a611cd0565b805160005b81811015610fdf576000838281518110610a4b57610a4b61550f565b60209081029190910101516040516370a0823160e01b81523060048201526001600160a01b03909116906370a082319060240160206040518083038186803b158015610a9657600080fd5b505afa158015610aaa573d6000803e3d6000fd5b505050506040513d601f19601f82011682018060405250810190610ace91906154d9565b90506000848381518110610ae457610ae461550f565b60200260200101519050600073__$a949af228b7bd2e36efc48dbaaf0130ade$__6316babddd7f00000000000000000000000000000000000000000000000000000000000000006001600160a01b0316633018205f6040518163ffffffff1660e01b815260040160206040518083038186803b158015610b6357600080fd5b505afa158015610b77573d6000803e3d6000fd5b505050506040513d601f19601f82011682018060405250810190610b9b91906154f2565b7f00000000000000000000000000000000000000000000000000000000000000006001600160a01b031663754863426040518163ffffffff1660e01b815260040160206040518083038186803b158015610bf457600080fd5b505afa158015610c08573d6000803e3d6000fd5b505050506040513d601f19601f82011682018060405250810190610c2c91906154f2565b898881518110610c3e57610c3e61550f565b60209081029190910101516040516001600160e01b031960e086901b1681526001600160a01b03938416600482015291831660248301529190911660448201526064810186905230608482015260a40160206040518083038186803b158015610ca657600080fd5b505af4158015610cba573d6000803e3d6000fd5b505050506040513d601f19601f82011682018060405250810190610cde91906154d9565b90506000826001600160a01b031663aabaecd66040518163ffffffff1660e01b815260040160206040518083038186803b158015610d1b57600080fd5b505afa158015610d2f573d6000803e3d6000fd5b505050506040513d601f19601f82011682018060405250810190610d5391906154f2565b9050868581518110610d6757610d6761550f565b60200260200101516001600160a01b03167fcfbc7c1cffc3612dc4d74c24b018635a861919eb25d4ea23efc0c2404d2ede37858484604051610dc59392919092835260208301919091526001600160a01b0316604082015260600190565b60405180910390a27f00000000000000000000000000000000000000000000000000000000000000006001600160a01b0316816001600160a01b03161415610ee157610e527f00000000000000000000000000000000000000000000000000000000000000007f000000000000000000000000000000000000000000000000000000000000000084611a87565b604080518381527f00000000000000000000000000000000000000000000000000000000000000006001600160a01b0390811660208301527f0000000000000000000000000000000000000000000000000000000000000000168183015290517f744fbf6132bf95d831170c703fad48b37e840b0d8ee05263e424504a0f3196779181900360600190a1610fc8565b6000610eef83600084611dc0565b9050610f3c7f00000000000000000000000000000000000000000000000000000000000000007f000000000000000000000000000000000000000000000000000000000000000083611a87565b604080518281527f00000000000000000000000000000000000000000000000000000000000000006001600160a01b0390811660208301527f0000000000000000000000000000000000000000000000000000000000000000168183015290517f744fbf6132bf95d831170c703fad48b37e840b0d8ee05263e424504a0f3196779181900360600190a1505b505050508080610fd79061553b565b915050610a2f565b505050565b610fec6119d0565b805160005b8181101561113c57600083828151811061100d5761100d61550f565b60209081029190910101516040516370a0823160e01b81523060048201526001600160a01b03909116906370a082319060240160206040518083038186803b15801561105857600080fd5b505afa15801561106c573d6000803e3d6000fd5b505050506040513d601f19601f8201168201806040525081019061109091906154d9565b90506110b68483815181106110a7576110a761550f565b60200260200101518683611a87565b7fbea4ca70ed28e5030e8d16ad1cfb46719d7af013c7235d0e27db0bd2e8ea1318858584815181106110ea576110ea61550f565b602002602001015183604051611121939291906001600160a01b039384168152919092166020820152604081019190915260600190565b60405180910390a150806111348161553b565b915050610ff1565b50505050565b6000806111546402540be4008561556c565b90506000836001600160a01b031663313ce5676040518163ffffffff1660e01b815260040160206040518083038186803b15801561119157600080fd5b505afa1580156111a5573d6000803e3d6000fd5b505050506040513d601f19601f820116820180604052508101906111c9919061558e565b60ff169050600881106111de5750905061121d565b60006111eb8260086155b1565b90506111f881600a6156ac565b61120382600a6156ac565b61120d908561556c565b61121791906156b8565b93505050505b92915050565b60008360000151838560400151604051602001611242939291906156d7565b60408051808303601f1901815290829052805160209091012060055463948d6e3760e01b8352600483018290529092506000916001600160a01b039091169063948d6e379060240160606040518083038186803b1580156112a257600080fd5b505afa1580156112b6573d6000803e3d6000fd5b505050506040513d601f19601f820116820180604052508101906112da9190615717565b80519091506112fc57604051633c7b394760e21b815260040160405180910390fd5b821561132957806040015161132457604051634698cf4f60e01b815260040160405180910390fd5b61134b565b806020015161134b576040516343a1bda960e01b815260040160405180910390fd5b4285600001516001600160401b031611611378576040516366bfac3d60e01b815260040160405180910390fd5b7f00000000000000000000000000000000000000000000000000000000000000006001600160a01b031685606001516001600160a01b0316146113ce5760405163bff9e44560e01b815260040160405180910390fd5b7f00000000000000000000000000000000000000000000000000000000000000006001600160a01b031685608001516001600160a01b0316146114245760405163b3e8cda760e01b815260040160405180910390fd5b60a08501516001600160a01b03166000908152600860209081526040808320818901511515845290915290205460ff1661147157604051639d3b9e0160e01b815260040160405180910390fd5b509392505050565b6040516370a0823160e01b81523060048201526000907f00000000000000000000000000000000000000000000000000000000000000006001600160a01b0316906370a082319060240160206040518083038186803b1580156114db57600080fd5b505afa1580156114ef573d6000803e3d6000fd5b505050506040513d601f19601f8201168201806040525081019061151391906154d9565b905090565b6115206119d0565b6001600160a01b038316600081815260086020908152604080832086151580855290835292819020805460ff19168615159081179091558151938452918301919091527fa4feb6b9e909220fa615f27a7fb269d35ad521ff42b7516abd3626bf0e339ee9910160405180910390a2505050565b60007f00000000000000000000000000000000000000000000000000000000000000006001600160a01b0316635fb480c96040518163ffffffff1660e01b815260040160206040518083038186803b1580156115ee57600080fd5b505afa158015611602573d6000803e3d6000fd5b505050506040513d601f19601f8201168201806040525081019061151391906154f2565b61162e6119d0565b6001600160a01b03811661164157600080fd5b600480546001600160a01b0319166001600160a01b0392909216919091179055565b61166b6119d0565b600791909155600655565b61167e6119d0565b6001600160a01b0382166000908152600360205260409020805462ffffff191662ffffff83161790556116d4827f0000000000000000000000000000000000000000000000000000000000000000600019611f4e565b5050565b60006116e2614a8f565b60006116f685856116f1611fc6565b612021565b9250925092509250925092565b6000806000fd5b60005460ff16156108165760405162461bcd60e51b815260206004820152601060248201526f14185d5cd8589b194e881c185d5cd95960821b6044820152606401610641565b60005b81518110156116d45760008282815181106117705761177061550f565b60209081029190910101518051909150600081600181111561179457611794615788565b14156117ac576117a78260200151612700565b6117d3565b60018160018111156117c0576117c0615788565b14156117d3576117d38260200151612c84565b505080806117e09061553b565b915050611753565b3360009081526009602090815260408083208054825181850281018501909352808352919290919083018282801561184957602002820191906000526020600020905b81546001600160a01b0316815260019091019060200180831161182b575b505083519394506000925050505b818110156119b757336000908152600a60205260408120845182908690859081106118845761188461550f565b60200260200101516001600160a01b03166001600160a01b03168152602001908152602001600020549050806000146119a4577f00000000000000000000000000000000000000000000000000000000000000006001600160a01b03168483815181106118f3576118f361550f565b60200260200101516001600160a01b0316141561198b576119357f00000000000000000000000000000000000000000000000000000000000000003383611a87565b336000908152600a602052604081208551829087908690811061195a5761195a61550f565b60200260200101516001600160a01b03166001600160a01b03168152602001908152602001600020819055506119a4565b6040516329513c0360e11b815260040160405180910390fd5b50806119af8161553b565b915050611857565b503360009081526009602052604081206116d491614ac4565b600060019054906101000a90046001600160a01b03166001600160a01b0316630c340a246040518163ffffffff1660e01b815260040160206040518083038186803b158015611a1e57600080fd5b505afa158015611a32573d6000803e3d6000fd5b505050506040513d601f19601f82011682018060405250810190611a5691906154f2565b6001600160a01b0316336001600160a01b0316146108165760405163075fd2b160e01b815260040160405180910390fd5b600060405163a9059cbb60e01b81526001600160a01b03841660048201528260248201526000806044836000895af1915050611ac281612d89565b61113c5760405162461bcd60e51b815260206004820152600f60248201526e1514905394d1915497d19052531151608a1b6044820152606401610641565b60005460405163794f111b60e11b81523360048201526101009091046001600160a01b03169063f29e22369060240160206040518083038186803b158015611b4757600080fd5b505afa158015611b5b573d6000803e3d6000fd5b505050506040513d601f19601f82011682018060405250810190611b7f919061579e565b158015611c235750600060019054906101000a90046001600160a01b03166001600160a01b0316630c340a246040518163ffffffff1660e01b815260040160206040518083038186803b158015611bd557600080fd5b505afa158015611be9573d6000803e3d6000fd5b505050506040513d601f19601f82011682018060405250810190611c0d91906154f2565b6001600160a01b0316336001600160a01b031614155b156108165760405163075fd2b160e01b815260040160405180910390fd5b611c49612dce565b6000805460ff191690557f5db9ee0a495bf2e6ff9c91a7834c1ba4fdd244a5e8aa4e537bd38aeae4b073aa335b6040516001600160a01b03909116815260200160405180910390a1565b611c9b61170a565b6000805460ff191660011790557f62e78cea01bee320cd4e420270b5ea74000d11b0c9f74754ebdbfc544b05a258611c763390565b600060019054906101000a90046001600160a01b03166001600160a01b031663481c6a756040518163ffffffff1660e01b815260040160206040518083038186803b158015611d1e57600080fd5b505afa158015611d32573d6000803e3d6000fd5b505050506040513d601f19601f82011682018060405250810190611d5691906154f2565b6001600160a01b0316336001600160a01b031614158015611c235750600060019054906101000a90046001600160a01b03166001600160a01b0316630c340a246040518163ffffffff1660e01b815260040160206040518083038186803b158015611bd557600080fd5b6001600160a01b03811660009081526003602052604081205462ffffff1680611dfc57604051630db08e3d60e01b815260040160405180910390fd5b60408051610100810182526001600160a01b0385811682527f000000000000000000000000000000000000000000000000000000000000000081166020830190815262ffffff8581168486019081523060608601908152426080870190815260a087018d815260c088018d8152600060e08a018181529a5163414bf38960e01b81528a518a166004820152975189166024890152945190951660448701529151861660648601525160848501525160a4840152905160c48301529351821660e48201529192917f00000000000000000000000000000000000000000000000000000000000000009091169063414bf3899061010401602060405180830381600087803b158015611f0b57600080fd5b505af1158015611f1f573d6000803e3d6000fd5b505050506040513d601f19601f82011682018060405250810190611f4391906154d9565b979650505050505050565b600060405163095ea7b360e01b81526001600160a01b03841660048201528260248201526000806044836000895af1915050611f8981612d89565b61113c5760405162461bcd60e51b815260206004820152600e60248201526d1054141493d59157d1905253115160921b6044820152606401610641565b60007f00000000000000000000000000000000000000000000000000000000000000006001600160a01b0316633b4567b06040518163ffffffff1660e01b815260040160206040518083038186803b1580156115ee57600080fd5b600061202b614a8f565b60006001600160a01b0386166121b55760608501516080860151865160408089015160208a015160a08b01519251631087e2b560e11b81526001600160a01b03968716600482015294861660248601526001600160401b039093166044850152151560648401526001600160801b039091166084830152821660a48201529085169063210fc56a9060c40160206040518083038186803b1580156120ce57600080fd5b505afa1580156120e2573d6000803e3d6000fd5b505050506040513d601f19601f8201168201806040525081019061210691906154f2565b95506040518060c0016040528086600001516001600160401b0316815260200161215d87602001516001600160801b03167f0000000000000000000000000000000000000000000000000000000000000000611142565b6001600160801b0316815260200186604001511515815260200186606001516001600160a01b0316815260200186608001516001600160a01b031681526020018660a001516001600160a01b03168152509450612544565b60405163dac9675b60e01b81526001600160a01b03878116600483015285169063dac9675b9060240160c06040518083038186803b1580156121f657600080fd5b505afa15801561220a573d6000803e3d6000fd5b505050506040513d601f19601f8201168201806040525081019061222e919061583e565b80519095506001600160401b03166125445760008690506040518060c00160405280826001600160a01b031663ade6e2aa6040518163ffffffff1660e01b815260040160206040518083038186803b15801561228957600080fd5b505afa15801561229d573d6000803e3d6000fd5b505050506040513d601f19601f820116820180604052508101906122c191906154d9565b6001600160401b03168152602001826001600160a01b031663c52987cf6040518163ffffffff1660e01b815260040160206040518083038186803b15801561230857600080fd5b505afa15801561231c573d6000803e3d6000fd5b505050506040513d601f19601f8201168201806040525081019061234091906154d9565b6001600160801b03168152602001826001600160a01b031663f3c274a66040518163ffffffff1660e01b815260040160206040518083038186803b15801561238757600080fd5b505afa15801561239b573d6000803e3d6000fd5b505050506040513d601f19601f820116820180604052508101906123bf919061579e565b15158152602001826001600160a01b0316637158da7c6040518163ffffffff1660e01b815260040160206040518083038186803b1580156123ff57600080fd5b505afa158015612413573d6000803e3d6000fd5b505050506040513d601f19601f8201168201806040525081019061243791906154f2565b6001600160a01b03168152602001826001600160a01b03166317d69bc86040518163ffffffff1660e01b815260040160206040518083038186803b15801561247e57600080fd5b505afa158015612492573d6000803e3d6000fd5b505050506040513d601f19601f820116820180604052508101906124b691906154f2565b6001600160a01b03168152602001826001600160a01b031663aabaecd66040518163ffffffff1660e01b815260040160206040518083038186803b1580156124fd57600080fd5b505afa158015612511573d6000803e3d6000fd5b505050506040513d601f19601f8201168201806040525081019061253591906154f2565b6001600160a01b031690529550505b6001600160a01b03861661256b57604051634f13847960e11b815260040160405180910390fd5b84516001600160401b031661259357604051634f13847960e11b815260040160405180910390fd5b60006125a16008601261585a565b6125ac90600a61587d565b86602001516001600160801b03166125c491906156b8565b905060007f00000000000000000000000000000000000000000000000000000000000000006001600160a01b031663d01f63f56040518163ffffffff1660e01b815260040160206040518083038186803b15801561262157600080fd5b505afa158015612635573d6000803e3d6000fd5b505050506040513d601f19601f8201168201806040525081019061265991906154f2565b6040516302328d7360e31b81526001600160a01b038a81166004830152919250908216906311946b989060240160206040518083038186803b15801561269e57600080fd5b505afa1580156126b2573d6000803e3d6000fd5b505050506040513d601f19601f820116820180604052508101906126d6919061579e565b6126f35760405163e85ee80360e01b815260040160405180910390fd5b5095969495949350505050565b60007f00000000000000000000000000000000000000000000000000000000000000006001600160a01b0316633018205f6040518163ffffffff1660e01b815260040160206040518083038186803b15801561275b57600080fd5b505afa15801561276f573d6000803e3d6000fd5b505050506040513d601f19601f8201168201806040525081019061279391906154f2565b82519091506000816001600160401b038111156127b2576127b2614cdd565b6040519080825280602002602001820160405280156127eb57816020015b6127d8614ae5565b8152602001906001900390816127d05790505b50604051635b1b1e7960e11b81523360048201523060248201529091506001600160a01b0384169063b6363cf29060440160206040518083038186803b15801561283457600080fd5b505afa158015612848573d6000803e3d6000fd5b505050506040513d601f19601f8201168201806040525081019061286c919061579e565b6128895760405163e312900160e01b815260040160405180910390fd5b60005b82811015612c1f5760006128b88683815181106128ab576128ab61550f565b6020026020010151612e17565b80516020820151919250906001600160a01b031633146128eb576040516307649f8160e51b815260040160405180910390fd5b600381600a8111156128ff576128ff615788565b14156129375760408201516001600160a01b03163314612932576040516307649f8160e51b815260040160405180910390fd5b612bec565b600481600a81111561294b5761294b615788565b141561299a5760408201516001600160a01b03163014156129325760608201516129329061297b6008601261585a565b61298690600a61587d565b8460a0015161299591906156b8565b612ebe565b600581600a8111156129ae576129ae615788565b1415612ac85760408201516001600160a01b031633148015906129de575060408201516001600160a01b03163014155b156129fc576040516307649f8160e51b815260040160405180910390fd5b60408201516001600160a01b031630141561293257612a25826060015133308560a00151612f5b565b61293282606001517f00000000000000000000000000000000000000000000000000000000000000006001600160a01b031663754863426040518163ffffffff1660e01b815260040160206040518083038186803b158015612a8657600080fd5b505afa158015612a9a573d6000803e3d6000fd5b505050506040513d601f19601f82011682018060405250810190612abe91906154f2565b8460a00151611f4e565b600181600a811115612adc57612adc615788565b1415612b0c5760408201516001600160a01b03163014156129325760608201516129329061297b6008601261585a565b600281600a811115612b2057612b20615788565b1415612b535760408201516001600160a01b03163314612932576040516307649f8160e51b815260040160405180910390fd5b600881600a811115612b6757612b67615788565b1415612b8657604051632893247960e01b815260040160405180910390fd5b600a81600a811115612b9a57612b9a615788565b1415612bb957604051632893247960e01b815260040160405180910390fd5b600981600a811115612bcd57612bcd615788565b1415612bec57604051632893247960e01b815260040160405180910390fd5b81848481518110612bff57612bff61550f565b602002602001018190525050508080612c179061553b565b91505061288c565b50604051635b0bf86360e11b81526001600160a01b0384169063b617f0c690612c4c9084906004016158d9565b600060405180830381600087803b158015612c6657600080fd5b505af1158015612c7a573d6000803e3d6000fd5b5050505050505050565b60005b81518110156116d4576000612cb4838381518110612ca757612ca761550f565b6020026020010151612ff5565b80519091506000816003811115612ccd57612ccd615788565b1415612cea57612ce4612cdf83613088565b6130ee565b50612d74565b6001816003811115612cfe57612cfe615788565b1415612d1557612ce4612d108361332e565b6133c7565b6002816003811115612d2957612d29615788565b1415612d4757612d42612d3b836138e5565b60006139a5565b612d74565b6003816003811115612d5b57612d5b615788565b1415612d7457612d74612d6d836138e5565b60016139a5565b50508080612d819061553b565b915050612c87565b60003d82612d9b57806000803e806000fd5b8060208114612db3578015612dc457600092506107ff565b816000803e600051151592506107ff565b5060019392505050565b60005460ff166108165760405162461bcd60e51b815260206004820152601460248201527314185d5cd8589b194e881b9bdd081c185d5cd95960621b6044820152606401610641565b612e1f614ae5565b6040518061010001604052808360000151600a811115612e4157612e41615788565b600a811115612e5257612e52615788565b815260200183602001516001600160a01b0316815260200183604001516001600160a01b0316815260200183606001516001600160a01b03168152602001836080015181526020018360a0015181526020018360e0015181526020018361010001518152509050919050565b336000908152600a602090815260408083206001600160a01b0386168452909152902054612f1f573360009081526009602090815260408220805460018101825590835291200180546001600160a01b0319166001600160a01b0384161790555b336000908152600a602090815260408083206001600160a01b038616845290915281208054839290612f529084906159ba565b90915550505050565b600084905060006040516323b872dd60e01b81526001600160a01b03861660048201526001600160a01b03851660248201528360448201526000806064836000875af1915050612faa81612d89565b612fed5760405162461bcd60e51b81526020600482015260146024820152731514905394d1915497d19493d357d1905253115160621b6044820152606401610641565b505050505050565b612ffd614b46565b6040518060e001604052808360000151600381111561301e5761301e615788565b600381111561302f5761302f615788565b815260200183604001516001600160a01b0316815260200183606001516001600160a01b03168152602001836080015181526020018360a0015181526020018360c0015181526020018361010001518152509050919050565b613090614b8a565b6000825160038111156130a5576130a5615788565b146130d75760405162461bcd60e51b8152602060048201526002602482015261209960f11b6044820152606401610641565b50604080516020810190915260a090910151815290565b60006130f861170a565b60006131066008601261585a565b61311190600a61587d565b83516020015161314a906001600160801b03167f0000000000000000000000000000000000000000000000000000000000000000611142565b61315491906156b8565b8351805160409182015191519293506000926131749285916020016156d7565b60408051808303601f1901815290829052805160209091012060055463948d6e3760e01b8352600483018290529092506000916001600160a01b039091169063948d6e379060240160606040518083038186803b1580156131d457600080fd5b505afa1580156131e8573d6000803e3d6000fd5b505050506040513d601f19601f8201168201806040525081019061320c9190615717565b805190915061322e57604051633c7b394760e21b815260040160405180910390fd5b8060200151613250576040516343a1bda960e01b815260040160405180910390fd5b845160405163380c1f0560e11b81526001600160a01b037f000000000000000000000000000000000000000000000000000000000000000016916370183e0a9161329d91906004016159d2565b602060405180830381600087803b1580156132b757600080fd5b505af11580156132cb573d6000803e3d6000fd5b505050506040513d601f19601f820116820180604052508101906132ef91906154f2565b6040519094506001600160a01b038516907f4d4aad5411a432a9681270e88760ad5db0c5a9bee58c814504fa60f939a1b66690600090a2505050919050565b613336614ba2565b60018251600381111561334b5761334b615788565b1461337d5760405162461bcd60e51b8152602060048201526002602482015261413360f01b6044820152606401610641565b60405180608001604052808360a00151815260200183604001516001600160a01b031681526020018360800151815260200183602001516001600160a01b03168152509050919050565b60006133d161170a565b600754826040015110156133f8576040516376ef72d960e11b815260040160405180910390fd5b6006548260400151111561341e576040516284260f60e31b815260040160405180910390fd5b6000613428611fc6565b90506000613434611593565b905061343e614bd0565b6000613455866020015187600001518660006140d5565b604086810192909252602086018390526001600160a01b03938416865260608a01516002548b8401519351630878137560e21b815260048101849052929650909490811693634d85b51d9390929091600091908a16906321e04dd490602401602060405180830381600087803b1580156134ce57600080fd5b505af11580156134e2573d6000803e3d6000fd5b505050506040513d601f19601f8201168201806040525081019061350691906154d9565b6040518563ffffffff1660e01b815260040161352594939291906159e0565b60606040518083038186803b15801561353d57600080fd5b505afa158015613551573d6000803e3d6000fd5b505050506040513d601f19601f820116820180604052508101906135759190615a0b565b60c0860181905260a08601919091526080850182905261359591906141b7565b825160405163c238f68d60e01b81526001600160a01b03918216600482015260009186169063c238f68d906024016101006040518083038186803b1580156135dc57600080fd5b505afa1580156135f0573d6000803e3d6000fd5b505050506040513d601f19601f820116820180604052508101906136149190615a39565b604001519050600088604001519050826001600160a01b031685600001516001600160a01b03167f0b589d43817288ce5cd44b58d2eabb1ecaa4cf6008212482821e82a53b4fe2ad8360405161366c91815260200190565b60405180910390a3600082131561375e57600081831161368c578261368e565b815b86519091506136be90856136a46008601261585a565b6136af90600a61587d565b6136b9908561556c565b611a87565b866001600160a01b031663dce66fb887602001516000846136de90615a98565b8a516040516001600160e01b031960e087901b1681526137049493929190600401615ab5565b600060405180830381600087803b15801561371e57600080fd5b505af1158015613732573d6000803e3d6000fd5b50505050808261374291906155b1565b91508161375c575050506040909601519695505050505050565b505b7f00000000000000000000000000000000000000000000000000000000000000006001600160a01b0316856040015160a001516001600160a01b0316146137b857604051639d3b9e0160e01b815260040160405180910390fd5b60208501518551604051631b9ccdf760e31b81526001600160a01b0389169263dce66fb8926137ee928691600091600401615ab5565b600060405180830381600087803b15801561380857600080fd5b505af115801561381c573d6000803e3d6000fd5b5050506040808701518751608089015160a08a0151935163bdb4246160e01b81526001600160a01b037f000000000000000000000000000000000000000000000000000000000000000016955063bdb424619461388494939288928f92908c90600401615ae9565b602060405180830381600087803b15801561389e57600080fd5b505af11580156138b2573d6000803e3d6000fd5b505050506040513d601f19601f820116820180604052508101906138d691906154d9565b9750505050505050505b919050565b6138ed614c2b565b60028251600381111561390257613902615788565b1480613920575060038251600381111561391e5761391e615788565b145b6139515760405162461bcd60e51b8152602060048201526002602482015261104d60f21b6044820152606401610641565b6040518060a001604052808360a00151815260200183604001516001600160a01b03168152602001836060015181526020018360800151815260200183602001516001600160a01b03168152509050919050565b6139ad61170a565b600754826060015110156139d4576040516376ef72d960e11b815260040160405180910390fd5b600654826060015111156139fa576040516284260f60e31b815260040160405180910390fd5b6000613a04611fc6565b90506000613a10611593565b9050613a1a614c60565b6000613a31866020015187600001518660016140d5565b604086810192909252602086018390526001600160a01b03938416865260025460608b01519251630878137560e21b815260048101839052919550841693634d85b51d9392916001918916906321e04dd490602401602060405180830381600087803b158015613aa057600080fd5b505af1158015613ab4573d6000803e3d6000fd5b505050506040513d601f19601f82011682018060405250810190613ad891906154d9565b6040518563ffffffff1660e01b8152600401613af794939291906159e0565b60606040518083038186803b158015613b0f57600080fd5b505afa158015613b23573d6000803e3d6000fd5b505050506040513d601f19601f82011682018060405250810190613b479190615a0b565b60a085015260808401526060808401919091528601805160c0840152336000908152600a6020908152604080832086516001600160a01b0316845290915290205460e084018190529051613b9b91906143ab565b336000908152600a6020908152604080832086516001600160a01b0316845290915281208054909190613bcf9084906155b1565b9091555050815160405163c238f68d60e01b81526001600160a01b03918216600482015260009185169063c238f68d906024016101006040518083038186803b158015613c1b57600080fd5b505afa158015613c2f573d6000803e3d6000fd5b505050506040513d601f19601f82011682018060405250810190613c539190615a39565b6020015190506000811315613caa57858015613c7a575080613c788460c001516143c0565b135b15613c9857604051632d8579d360e01b815260040160405180910390fd5b613ca383828761442e565b9250613cc9565b8515613cc957604051631c0e890960e11b815260040160405180910390fd5b85158015613ce2575060a0830151606084015160031c11155b15613d005760405163074d2b6160e51b815260040160405180910390fd5b60c083015115613e2c578260e001518360c001511115613dbd57613dbd83600001513330613db88760e001518860c00151613d3b91906155b1565b88600001516001600160a01b031663313ce5676040518163ffffffff1660e01b815260040160206040518083038186803b158015613d7857600080fd5b505afa158015613d8c573d6000803e3d6000fd5b505050506040513d601f19601f82011682018060405250810190613db0919061558e565b60ff1661470e565b612f5b565b602083015160c08401518451604051631b9ccdf760e31b81526001600160a01b0388169363dce66fb893613df993919260009290600401615ab5565b600060405180830381600087803b158015613e1357600080fd5b505af1158015613e27573d6000803e3d6000fd5b505050505b82610120015183606001511115613f85578261012001518360600151613e5291906155b1565b60405163f8b2cb4f60e01b81526001600160a01b037f0000000000000000000000000000000000000000000000000000000000000000811660048301527f0000000000000000000000000000000000000000000000000000000000000000169063f8b2cb4f9060240160206040518083038186803b158015613ed357600080fd5b505afa158015613ee7573d6000803e3d6000fd5b505050506040513d601f19601f82011682018060405250810190613f0b91906154d9565b1015613f2a5760405163b84beb5d60e01b815260040160405180910390fd5b613f857f00000000000000000000000000000000000000000000000000000000000000007f0000000000000000000000000000000000000000000000000000000000000000308661012001518760600151613db891906155b1565b60a0830151606084015160031c1115613fdc5760045460a0840151613fd7917f0000000000000000000000000000000000000000000000000000000000000000916001600160a01b0390911690611a87565b613fe4565b600060a08401525b60808701516001600160a01b0316301415614036576140317f00000000000000000000000000000000000000000000000000000000000000008460a00151856060015161299591906155b1565b614073565b6140737f000000000000000000000000000000000000000000000000000000000000000088608001518560a0015186606001516136b991906155b1565b86608001516001600160a01b031683600001516001600160a01b03167fa6be6f3abe265092300ab77e394ab7b93d40fb561436bb1969b20878aa82837189606001516040516140c491815260200190565b60405180910390a350505050505050565b60006140df614a8f565b6140e7614a8f565b6000806000806140f88b8b8b612021565b925092509250600061410b83838b611223565b6040805160c08101825285516001600160401b031681526001600160801b03949094166020850152848101511515908401526001600160a01b037f0000000000000000000000000000000000000000000000000000000000000000811660608501527f00000000000000000000000000000000000000000000000000000000000000008116608085015260a08086015190911690840152939c919b509199509197509095505050505050565b336000908152600a602090815260408083207f00000000000000000000000000000000000000000000000000000000000000006001600160a01b0316845290915290205461420582846159ba565b11156142bf57336000908152600a602090815260408083207f00000000000000000000000000000000000000000000000000000000000000006001600160a01b0316845290915281205461425983856159ba565b61426391906155b1565b336000818152600a602090815260408083207f00000000000000000000000000000000000000000000000000000000000000006001600160a01b038116855292528220919091559192506142b991903084612f5b565b50614322565b6142c981836159ba565b336000908152600a602090815260408083207f00000000000000000000000000000000000000000000000000000000000000006001600160a01b031684529091528120805490919061431c9084906155b1565b90915550505b801561436057600454614360907f0000000000000000000000000000000000000000000000000000000000000000906001600160a01b031683611a87565b6116d47f00000000000000000000000000000000000000000000000000000000000000007f000000000000000000000000000000000000000000000000000000000000000084611a87565b60008183116143ba57826107f8565b50919050565b60006001600160ff1b0382111561442a5760405162461bcd60e51b815260206004820152602860248201527f53616665436173743a2076616c756520646f65736e27742066697420696e2061604482015267371034b73a191a9b60c11b6064820152608401610641565b5090565b614436614c60565b614444838560c001516143ab565b61010085015260e0840151156144935761449384600001517f00000000000000000000000000000000000000000000000000000000000000006136b9613d3b8860e001518961010001516143ab565b8360e001518461010001511115614523576145238460000151337f0000000000000000000000000000000000000000000000000000000000000000613db88860e001518961010001516144e691906155b1565b89600001516001600160a01b031663313ce5676040518163ffffffff1660e01b815260040160206040518083038186803b158015613d7857600080fd5b61454d8461010001516145478660c00151876060015161474a90919063ffffffff16565b9061475f565b6101208501819052604085015161010086015186516000936001600160a01b037f00000000000000000000000000000000000000000000000000000000000000001693635733af2a93909290918891906145d26145a9856143c0565b6145cc6145b98f60c001516143c0565b8f6080015161476b90919063ffffffff16565b9061483d565b306040518863ffffffff1660e01b81526004016145f59796959493929190615b3a565b602060405180830381600087803b15801561460f57600080fd5b505af1158015614623573d6000803e3d6000fd5b505050506040513d601f19601f8201168201806040525081019061464791906154d9565b9050614651611593565b6001600160a01b031663dce66fb886602001518361466e90615a98565b88516040516001600160e01b031960e086901b168152614695939291600091600401615ab5565b600060405180830381600087803b1580156146af57600080fd5b505af11580156146c3573d6000803e3d6000fd5b50505050808560c0018181516146d991906155b1565b90525060e08501516101008601516146f191906143ab565b8560e00181815161470291906155b1565b90525093949350505050565b6000601282111561471e57600080fd5b600061472b8360126155b1565b905061473881600a6156ac565b614742908561556c565b949350505050565b60006107f883670de0b6b3a7640000846148ff565b60006107f883836149cd565b6000600160ff1b8314806147825750600160ff1b82145b156147a05760405163b3c754a360e01b815260040160405180910390fd5b600080600085126147b157846147b6565b846000035b9150600084126147c657836147cb565b836000035b905060006147e283670de0b6b3a7640000846148ff565b90506001600160ff1b0381111561480f57604051637cb4bef560e01b815260048101829052602401610641565b6000198087139086138082186001146148285782614831565b61483183615a98565b98975050505050505050565b6000600160ff1b8314806148545750600160ff1b82145b1561487257604051630d01a11b60e21b815260040160405180910390fd5b600080600085126148835784614888565b846000035b915060008412614898578361489d565b836000035b905060006148ab83836149cd565b90506001600160ff1b038111156148d85760405163bf79e8d960e01b815260048101829052602401610641565b6000198087139086138082186001146148f15782614831565b505060000395945050505050565b60008080600019858709858702925082811083820303915050806000141561493a5783828161493057614930615556565b04925050506107f8565b83811061496457604051631dcf306360e21b81526004810182905260248101859052604401610641565b60008486880960026001871981018816978890046003810283188082028403028082028403028082028403028082028403028082028403029081029092039091026000889003889004909101858311909403939093029303949094049190911702949350505050565b60008080600019848609848602925082811083820303915050670de0b6b3a76400008110614a115760405163698d9a0160e11b815260048101829052602401610641565b600080670de0b6b3a76400008688099150506706f05b59d3b1ffff811182614a4b5780670de0b6b3a764000085040194505050505061121d565b620400008285030493909111909103600160ee1b02919091177faccb18165bd6fe31ae1cf318dc5b51eee0e1ba569b88cd74c1773b91fac106690201905092915050565b6040805160c081018252600080825260208201819052918101829052606081018290526080810182905260a081019190915290565b5080546000825590600052602060002090810190614ae29190614cc8565b50565b604080516101008101909152806000815260200160006001600160a01b0316815260200160006001600160a01b0316815260200160006001600160a01b03168152602001600081526020016000815260200160008152602001606081525090565b6040805160e0810190915280600081526000602082018190526040820181905260608201819052608082015260a001614b7d614a8f565b8152602001606081525090565b6040518060200160405280614b9d614a8f565b905290565b6040518060800160405280614bb5614a8f565b81526000602082018190526040820181905260609091015290565b6040518060e0016040528060006001600160a01b03168152602001614bf3614a8f565b8152602001614c00614a8f565b815260200160006001600160801b031681526020016000815260200160008152602001600081525090565b6040518060a00160405280614c3e614a8f565b8152600060208201819052604082018190526060820181905260809091015290565b60405180610140016040528060006001600160a01b03168152602001614c84614a8f565b8152602001614c91614a8f565b8152602001600081526020016000815260200160008152602001600081526020016000815260200160008152602001600081525090565b5b8082111561442a5760008155600101614cc9565b634e487b7160e01b600052604160045260246000fd5b60405160c081016001600160401b0381118282101715614d1557614d15614cdd565b60405290565b604080519081016001600160401b0381118282101715614d1557614d15614cdd565b60405161012081016001600160401b0381118282101715614d1557614d15614cdd565b604051601f8201601f191681016001600160401b0381118282101715614d8857614d88614cdd565b604052919050565b60006001600160401b03821115614da957614da9614cdd565b5060051b60200190565b6001600160a01b0381168114614ae257600080fd5b80356138e081614db3565b6001600160401b0381168114614ae257600080fd5b6001600160801b0381168114614ae257600080fd5b8015158114614ae257600080fd5b600060c08284031215614e1d57600080fd5b614e25614cf3565b90508135614e3281614dd3565b81526020820135614e4281614de8565b60208201526040820135614e5581614dfd565b60408201526060820135614e6881614db3565b60608201526080820135614e7b81614db3565b608082015260a0820135614e8e81614db3565b60a082015292915050565b600082601f830112614eaa57600080fd5b81356001600160401b03811115614ec357614ec3614cdd565b614ed6601f8201601f1916602001614d60565b818152846020838601011115614eeb57600080fd5b816020850160208301376000918101602001919091529392505050565b600060208284031215614f1a57600080fd5b6001600160401b0382351115614f2f57600080fd5b8135820183601f820112614f4257600080fd5b614f54614f4f8235614d90565b614d60565b81358082526020808301929160051b840101861015614f7257600080fd5b602083015b6020843560051b850101811015615155576001600160401b0381351115614f9d57600080fd5b6040813585018803601f19011215614fb457600080fd5b614fbc614d1b565b6002602083358701013510614fd057600080fd5b81358501602081013582526001600160401b036040909101351115614ff457600080fd5b81358501604081013501603f8101891361500d57600080fd5b61501d614f4f6020830135614d90565b602082810135808352908201919060051b83016040018b101561503f57600080fd5b604083015b6040602085013560051b85010181101561513c576001600160401b038135111561506d57600080fd5b803584016101c0818e03603f1901121561508657600080fd5b61508e614d3d565b604082013581526150a160608301614dc8565b60208201526150b260808301614dc8565b60408201526150c360a08301614dc8565b606082015260c0820135608082015260e082013560a08201526150ea8e6101008401614e0b565b60c08201526101c082013560e08201526001600160401b036101e0830135111561511357600080fd5b6151278e60406101e0850135850101614e99565b61010082015284525060209283019201615044565b5060208481019190915292865250509283019201614f77565b5095945050505050565b60006020828403121561517157600080fd5b81356107f881614db3565b60006020828403121561518e57600080fd5b5035919050565b600060c082840312156151a757600080fd5b6107f88383614e0b565b600080604083850312156151c457600080fd5b82356151cf81614db3565b915060208301356151df81614dfd565b809150509250929050565b600082601f8301126151fb57600080fd5b8135602061520b614f4f83614d90565b82815260059290921b8401810191818101908684111561522a57600080fd5b8286015b8481101561524e57803561524181614db3565b835291830191830161522e565b509695505050505050565b60006020828403121561526b57600080fd5b81356001600160401b0381111561528157600080fd5b614742848285016151ea565b600080604083850312156152a057600080fd5b82356152ab81614db3565b915060208301356001600160401b038111156152c657600080fd5b6152d2858286016151ea565b9150509250929050565b600080604083850312156152ef57600080fd5b8235915060208301356151df81614db3565b6000806000610100848603121561531757600080fd5b6153218585614e0b565b925060c084013561533181614de8565b915060e084013561534181614dfd565b809150509250925092565b60008060006060848603121561536157600080fd5b833561536c81614db3565b9250602084013561537c81614dfd565b9150604084013561534181614dfd565b6000806040838503121561539f57600080fd5b82356153aa81614db3565b915060208301356151df81614db3565b600080604083850312156153cd57600080fd5b50508035926020909101359150565b600080604083850312156153ef57600080fd5b82356153fa81614db3565b9150602083013562ffffff811681146151df57600080fd5b60008060e0838503121561542557600080fd5b823561543081614db3565b915061543f8460208501614e0b565b90509250929050565b80516001600160401b031682526020808201516001600160801b0316908301526040808201511515908301526060808201516001600160a01b039081169184019190915260808083015182169084015260a09182015116910152565b6001600160a01b038416815261010081016154c26020830185615448565b6001600160801b03831660e0830152949350505050565b6000602082840312156154eb57600080fd5b5051919050565b60006020828403121561550457600080fd5b81516107f881614db3565b634e487b7160e01b600052603260045260246000fd5b634e487b7160e01b600052601160045260246000fd5b600060001982141561554f5761554f615525565b5060010190565b634e487b7160e01b600052601260045260246000fd5b60008261558957634e487b7160e01b600052601260045260246000fd5b500490565b6000602082840312156155a057600080fd5b815160ff811681146107f857600080fd5b6000828210156155c3576155c3615525565b500390565b600181815b808511156156035781600019048211156155e9576155e9615525565b808516156155f657918102915b93841c93908002906155cd565b509250929050565b60008261561a5750600161121d565b816156275750600061121d565b816001811461563d576002811461564757615663565b600191505061121d565b60ff84111561565857615658615525565b50506001821b61121d565b5060208310610133831016604e8410600b8410161715615686575081810a61121d565b61569083836155c8565b80600019048211156156a4576156a4615525565b029392505050565b60006107f8838361560b565b60008160001904831182151516156156d2576156d2615525565b500290565b60c09390931b6001600160c01b031916835260809190911b6fffffffffffffffffffffffffffffffff19166008830152151560f81b601882015260190190565b60006060828403121561572957600080fd5b604051606081018181106001600160401b038211171561574b5761574b614cdd565b604052825161575981614dfd565b8152602083015161576981614dfd565b6020820152604083015161577c81614dfd565b60408201529392505050565b634e487b7160e01b600052602160045260246000fd5b6000602082840312156157b057600080fd5b81516107f881614dfd565b600060c082840312156157cd57600080fd5b6157d5614cf3565b905081516157e281614dd3565b815260208201516157f281614de8565b6020820152604082015161580581614dfd565b6040820152606082015161581881614db3565b6060820152608082015161582b81614db3565b608082015260a0820151614e8e81614db3565b600060c0828403121561585057600080fd5b6107f883836157bb565b600060ff821660ff84168082101561587457615874615525565b90039392505050565b60006107f860ff84168361560b565b6000815180845260005b818110156158b257602081850181015186830182015201615896565b818111156158c4576000602083870101525b50601f01601f19169290920160200192915050565b60006020808301818452808551808352604092508286019150828160051b8701018488016000805b848110156159ab57603f198a850301865282516101008151600b811061593557634e487b7160e01b85526021600452602485fd5b8652818a01516001600160a01b039081168b8801528983015181168a880152606080840151909116908701526080808301519087015260a0808301519087015260c0808301519087015260e0918201519186018190526159978187018361588c565b978a01979550505091870191600101615901565b50919998505050505050505050565b600082198211156159cd576159cd615525565b500190565b60c0810161121d8284615448565b61012081016159ef8287615448565b60c082019490945291151560e083015261010090910152919050565b600080600060608486031215615a2057600080fd5b8351925060208401519150604084015190509250925092565b60006101008284031215615a4c57600080fd5b604051606081018181106001600160401b0382111715615a6e57615a6e614cdd565b604052615a7b84846157bb565b815260c0830151602082015260e090920151604083015250919050565b6000600160ff1b821415615aae57615aae615525565b5060000390565b6101208101615ac48287615448565b60c082019490945260e08101929092526001600160a01b031661010090910152919050565b6101808101615af8828a615448565b6001600160a01b0397881660c083015260e082019690965293861661010085015261012084019290925261014083015290921661016090920191909152919050565b6101808101615b49828a615448565b60c08201979097526001600160a01b0395861660e08201529385166101008501526101208401929092526101408301529091166101609091015291905056fea264697066735822122061bf13c9de646b7589079af581817eb5cbb53fdfb5320fc71853cad7ce7ea4da64736f6c63430008090033a4feb6b9e909220fa615f27a7fb269d35ad521ff42b7516abd3626bf0e339ee9",
    "linkReferences": {
      "contracts/libraries/OpynInteractions.sol": {
        "OpynInteractions": [
          {
            "start": 3819,
            "length": 20
          },
          {
            "start": 4515,
            "length": 20
          }
        ]
      }
    }
  },
  "methodIdentifiers": {
    "_checkHash((uint64,uint128,bool,address,address,address),uint128,bool)": "af3d2c67",
    "addressbook()": "70dc320c",
    "approvedCollateral(address,bool)": "78af7bd3",
    "authority()": "bf7e214f",
    "catalogue()": "24e4013a",
    "changeApprovedCollateral(address,bool,bool)": "c12c5629",
    "collateralAsset()": "aabaecd6",
    "createOtoken((uint64,uint128,bool,address,address,address))": "7781476f",
    "feeRecipient()": "46904840",
    "formatStrikePrice(uint256,address)": "a3895ce6",
    "getDelta()": "c549176e",
    "getOptionDetails(address,(uint64,uint128,bool,address,address,address))": "f2476f3d",
    "getPoolDenominatedValue()": "b7aa436d",
    "getPortfolioValuesFeed()": "c221bd14",
    "hedgeDelta(int256)": "fbaac115",
    "heldTokens(address,address)": "e17b25d7",
    "liquidityPool()": "665a11ca",
    "maxTradeSize()": "10fa79e2",
    "migrateOtokens(address,address[])": "8d753017",
    "minTradeSize()": "6155be59",
    "operate((uint8,(uint256,address,address,address,uint256,uint256,(uint64,uint128,bool,address,address,address),uint256,bytes)[])[])": "14b6c4c6",
    "pause()": "8456cb59",
    "paused()": "5c975abb",
    "poolFees(address)": "be6e9161",
    "pricer()": "a6138ed9",
    "protocol()": "8ce74426",
    "redeem(address[])": "8730b205",
    "setAuthority(address)": "7a9e5e4b",
    "setFeeRecipient(address)": "e74b981b",
    "setOptionCatalogue(address)": "2179a43f",
    "setPoolFee(address,uint24)": "f0b20dcd",
    "setPricer(address)": "29390370",
    "setTradeSizeLimits(uint256,uint256)": "eb2d7855",
    "strikeAsset()": "17d69bc8",
    "swapRouter()": "c31c9c07",
    "underlyingAsset()": "7158da7c",
    "unpause()": "3f4ba83a",
    "update()": "a2e62045",
    "withdraw(uint256)": "2e1a7d4d"
  },
  "id": 5
}