{
  "abi": [
    {
      "inputs": [
        {
          "internalType": "address",
          "name": "_authority",
          "type": "address"
        },
        {
          "internalType": "address",
          "name": "_collateralAsset",
          "type": "address"
        }
      ],
      "stateMutability": "nonpayable",
      "type": "constructor"
    },
    {
      "inputs": [],
      "name": "UNAUTHORIZED",
      "type": "error"
    },
    {
      "inputs": [],
      "name": "UnapprovedSeries",
      "type": "error"
    },
    {
      "anonymous": false,
      "inputs": [
        {
          "indexed": false,
          "internalType": "contract IAuthority",
          "name": "authority",
          "type": "address"
        }
      ],
      "name": "AuthorityUpdated",
      "type": "event"
    },
    {
      "anonymous": false,
      "inputs": [
        {
          "indexed": false,
          "internalType": "uint64",
          "name": "expiration",
          "type": "uint64"
        },
        {
          "indexed": false,
          "internalType": "uint128",
          "name": "strike",
          "type": "uint128"
        },
        {
          "indexed": false,
          "internalType": "bool",
          "name": "isPut",
          "type": "bool"
        },
        {
          "indexed": false,
          "internalType": "bool",
          "name": "isBuyable",
          "type": "bool"
        },
        {
          "indexed": false,
          "internalType": "bool",
          "name": "isSellable",
          "type": "bool"
        }
      ],
      "name": "SeriesAltered",
      "type": "event"
    },
    {
      "anonymous": false,
      "inputs": [
        {
          "indexed": false,
          "internalType": "uint64",
          "name": "expiration",
          "type": "uint64"
        },
        {
          "indexed": false,
          "internalType": "uint128",
          "name": "strike",
          "type": "uint128"
        },
        {
          "indexed": false,
          "internalType": "bool",
          "name": "isPut",
          "type": "bool"
        },
        {
          "indexed": false,
          "internalType": "bool",
          "name": "isBuyable",
          "type": "bool"
        },
        {
          "indexed": false,
          "internalType": "bool",
          "name": "isSellable",
          "type": "bool"
        }
      ],
      "name": "SeriesApproved",
      "type": "event"
    },
    {
      "inputs": [
        {
          "internalType": "bytes32",
          "name": "oHash",
          "type": "bytes32"
        }
      ],
      "name": "approvedOptions",
      "outputs": [
        {
          "internalType": "bool",
          "name": "",
          "type": "bool"
        }
      ],
      "stateMutability": "view",
      "type": "function"
    },
    {
      "inputs": [],
      "name": "authority",
      "outputs": [
        {
          "internalType": "contract IAuthority",
          "name": "",
          "type": "address"
        }
      ],
      "stateMutability": "view",
      "type": "function"
    },
    {
      "inputs": [
        {
          "components": [
            {
              "internalType": "uint64",
              "name": "expiration",
              "type": "uint64"
            },
            {
              "internalType": "uint128",
              "name": "strike",
              "type": "uint128"
            },
            {
              "internalType": "bool",
              "name": "isPut",
              "type": "bool"
            },
            {
              "internalType": "bool",
              "name": "isBuyable",
              "type": "bool"
            },
            {
              "internalType": "bool",
              "name": "isSellable",
              "type": "bool"
            }
          ],
          "internalType": "struct Types.Option[]",
          "name": "options",
          "type": "tuple[]"
        }
      ],
      "name": "changeOptionBuyOrSell",
      "outputs": [],
      "stateMutability": "nonpayable",
      "type": "function"
    },
    {
      "inputs": [],
      "name": "collateralAsset",
      "outputs": [
        {
          "internalType": "address",
          "name": "",
          "type": "address"
        }
      ],
      "stateMutability": "view",
      "type": "function"
    },
    {
      "inputs": [
        {
          "internalType": "uint256",
          "name": "",
          "type": "uint256"
        }
      ],
      "name": "expirations",
      "outputs": [
        {
          "internalType": "uint64",
          "name": "",
          "type": "uint64"
        }
      ],
      "stateMutability": "view",
      "type": "function"
    },
    {
      "inputs": [
        {
          "internalType": "uint256",
          "name": "strikePrice",
          "type": "uint256"
        },
        {
          "internalType": "address",
          "name": "collateral",
          "type": "address"
        }
      ],
      "name": "formatStrikePrice",
      "outputs": [
        {
          "internalType": "uint256",
          "name": "",
          "type": "uint256"
        }
      ],
      "stateMutability": "view",
      "type": "function"
    },
    {
      "inputs": [],
      "name": "getExpirations",
      "outputs": [
        {
          "internalType": "uint64[]",
          "name": "",
          "type": "uint64[]"
        }
      ],
      "stateMutability": "view",
      "type": "function"
    },
    {
      "inputs": [
        {
          "internalType": "uint64",
          "name": "expiration",
          "type": "uint64"
        },
        {
          "internalType": "bool",
          "name": "isPut",
          "type": "bool"
        }
      ],
      "name": "getOptionDetails",
      "outputs": [
        {
          "internalType": "uint128[]",
          "name": "",
          "type": "uint128[]"
        }
      ],
      "stateMutability": "view",
      "type": "function"
    },
    {
      "inputs": [
        {
          "internalType": "bytes32",
          "name": "oHash",
          "type": "bytes32"
        }
      ],
      "name": "getOptionStores",
      "outputs": [
        {
          "components": [
            {
              "internalType": "bool",
              "name": "approvedOption",
              "type": "bool"
            },
            {
              "internalType": "bool",
              "name": "isBuyable",
              "type": "bool"
            },
            {
              "internalType": "bool",
              "name": "isSellable",
              "type": "bool"
            }
          ],
          "internalType": "struct OptionCatalogue.OptionStores",
          "name": "",
          "type": "tuple"
        }
      ],
      "stateMutability": "view",
      "type": "function"
    },
    {
      "inputs": [
        {
          "internalType": "bytes32",
          "name": "oHash",
          "type": "bytes32"
        }
      ],
      "name": "isBuyable",
      "outputs": [
        {
          "internalType": "bool",
          "name": "",
          "type": "bool"
        }
      ],
      "stateMutability": "view",
      "type": "function"
    },
    {
      "inputs": [
        {
          "internalType": "bytes32",
          "name": "oHash",
          "type": "bytes32"
        }
      ],
      "name": "isSellable",
      "outputs": [
        {
          "internalType": "bool",
          "name": "",
          "type": "bool"
        }
      ],
      "stateMutability": "view",
      "type": "function"
    },
    {
      "inputs": [
        {
          "components": [
            {
              "internalType": "uint64",
              "name": "expiration",
              "type": "uint64"
            },
            {
              "internalType": "uint128",
              "name": "strike",
              "type": "uint128"
            },
            {
              "internalType": "bool",
              "name": "isPut",
              "type": "bool"
            },
            {
              "internalType": "bool",
              "name": "isBuyable",
              "type": "bool"
            },
            {
              "internalType": "bool",
              "name": "isSellable",
              "type": "bool"
            }
          ],
          "internalType": "struct Types.Option[]",
          "name": "options",
          "type": "tuple[]"
        }
      ],
      "name": "issueNewSeries",
      "outputs": [],
      "stateMutability": "nonpayable",
      "type": "function"
    },
    {
      "inputs": [
        {
          "internalType": "uint256",
          "name": "",
          "type": "uint256"
        },
        {
          "internalType": "bool",
          "name": "",
          "type": "bool"
        },
        {
          "internalType": "uint256",
          "name": "",
          "type": "uint256"
        }
      ],
      "name": "optionDetails",
      "outputs": [
        {
          "internalType": "uint128",
          "name": "",
          "type": "uint128"
        }
      ],
      "stateMutability": "view",
      "type": "function"
    },
    {
      "inputs": [
        {
          "internalType": "bytes32",
          "name": "",
          "type": "bytes32"
        }
      ],
      "name": "optionStores",
      "outputs": [
        {
          "internalType": "bool",
          "name": "approvedOption",
          "type": "bool"
        },
        {
          "internalType": "bool",
          "name": "isBuyable",
          "type": "bool"
        },
        {
          "internalType": "bool",
          "name": "isSellable",
          "type": "bool"
        }
      ],
      "stateMutability": "view",
      "type": "function"
    },
    {
      "inputs": [
        {
          "internalType": "contract IAuthority",
          "name": "_newAuthority",
          "type": "address"
        }
      ],
      "name": "setAuthority",
      "outputs": [],
      "stateMutability": "nonpayable",
      "type": "function"
    }
  ],
  "bytecode": {
    "object": "0x60a060405234801561001057600080fd5b5060405161141a38038061141a83398101604081905261002f916100b1565b600080546001600160a01b0319166001600160a01b03841690811790915560405190815282907f2f658b440c35314f52658ea8a740e05b284cdc84dc9ae01e891f21b8933e7cad9060200160405180910390a1506001600160a01b0316608052506100e4565b80516001600160a01b03811681146100ac57600080fd5b919050565b600080604083850312156100c457600080fd5b6100cd83610095565b91506100db60208401610095565b90509250929050565b60805161130d61010d600039600081816102890152818161040201526106db015261130d6000f3fe608060405234801561001057600080fd5b50600436106100f55760003560e01c8063948d6e3711610097578063c251ddf811610066578063c251ddf8146102d6578063c71c5d0a14610301578063dd1c6baa14610321578063f5fc79e11461034c57600080fd5b8063948d6e37146101d3578063a3895ce614610263578063aabaecd614610284578063bf7e214f146102c357600080fd5b8063491fa4a4116100d3578063491fa4a41461017557806356e9d1e4146101885780637a9e5e4b1461019d5780637b4c08f9146101b057600080fd5b8063066966f3146100fa5780631e2d7889146101385780634574991514610160575b600080fd5b610123610108366004610d2d565b60009081526001602052604090205462010000900460ff1690565b60405190151581526020015b60405180910390f35b610123610146366004610d2d565b600090815260016020526040902054610100900460ff1690565b61017361016e366004610de0565b6103a1565b005b610173610183366004610de0565b61067a565b610190610818565b60405161012f9190610ef9565b6101736101ab366004610f5e565b6108a2565b6101236101be366004610d2d565b60009081526001602052604090205460ff1690565b61023b6101e1366004610d2d565b6040805160608082018352600080835260208084018290529284018190529384526001825292829020825193840183525460ff80821615158552610100820481161515928501929092526201000090041615159082015290565b604080518251151581526020808401511515908201529181015115159082015260600161012f565b610276610271366004610f82565b6108fe565b60405190815260200161012f565b6102ab7f000000000000000000000000000000000000000000000000000000000000000081565b6040516001600160a01b03909116815260200161012f565b6000546102ab906001600160a01b031681565b6102e96102e4366004610d2d565b6109df565b6040516001600160401b03909116815260200161012f565b61031461030f366004610fb2565b610a1c565b60405161012f9190610fe5565b61033461032f366004611026565b610ac5565b6040516001600160801b03909116815260200161012f565b61038261035a366004610d2d565b60016020526000908152604090205460ff808216916101008104821691620100009091041683565b604080519315158452911515602084015215159082015260600161012f565b6103a9610b1e565b805160005b818110156106755760008382815181106103ca576103ca61105b565b602002602001015190506000600860126103e49190611087565b6103ef90600a61118e565b61042683602001516001600160801b03167f00000000000000000000000000000000000000000000000000000000000000006108fe565b610430919061119d565b905060008260000151828460400151604051602001610451939291906111bc565b60408051601f1981840301815291815281516020928301206000818152600190935291205490915060ff161561048957505050610663565b60408051606080820183526001808352908601511515602080840191825260808801511515848601908152600087815284835286812095518654945192511515620100000262ff0000199315156101000261ff00199215159290921661ffff199096169590951717919091169290921790935586516001600160401b031681526003835283812091815291522054158015610546575082516001600160401b03166000908152600360209081526040808320838052909152902054155b156105ac578251600280546001810182556000919091527f405787fa12a823e0f2b7631cc41b3ba8828b3321ca811111fa75cd3aa3bb5ace6004820401805460039092166008026101000a6001600160401b038181021990931692909316929092021790555b82516001600160401b031660009081526003602090815260408083208187018051151585529083528184208054600180820183559186529390942060028404018054949093166010026101000a6001600160801b03818102199095169487160293909317909155845191516060860151608087015192517f30b2d9393857e92acc7bbac0bd8a9a347f190879b1f83aa6432872f92c2252d194610657949093889390929091906111fc565b60405180910390a15050505b8061066d81611237565b9150506103ae565b505050565b610682610b1e565b805160005b818110156106755760008382815181106106a3576106a361105b565b602002602001015190506000600860126106bd9190611087565b6106c890600a61118e565b6106ff83602001516001600160801b03167f00000000000000000000000000000000000000000000000000000000000000006108fe565b610709919061119d565b90506000826000015182846040015160405160200161072a939291906111bc565b60408051601f1981840301815291815281516020928301206000818152600190935291205490915060ff16156107e957606083018051600083815260016020526040908190208054608088015162ffff00199091166101009415159490940262ff00001916939093176201000084151502179055855181870151935191517f59a9498c0a818a82f6f2f1b48b8aa13efd8765a2202a170b29fe6bfe9c7083cc946107dc949293889391929091906111fc565b60405180910390a1610802565b604051633c7b394760e21b815260040160405180910390fd5b505050808061081090611237565b915050610687565b6060600280548060200260200160405190810160405280929190818152602001828054801561089857602002820191906000526020600020906000905b82829054906101000a90046001600160401b03166001600160401b0316815260200190600801906020826007010492830192600103820291508084116108555790505b5050505050905090565b6108aa610c78565b600080546001600160a01b0319166001600160a01b0383169081179091556040519081527f2f658b440c35314f52658ea8a740e05b284cdc84dc9ae01e891f21b8933e7cad9060200160405180910390a150565b6000806109106402540be40085611252565b90506000836001600160a01b031663313ce5676040518163ffffffff1660e01b815260040160206040518083038186803b15801561094d57600080fd5b505afa158015610961573d6000803e3d6000fd5b505050506040513d601f19601f820116820180604052508101906109859190611274565b60ff1690506008811061099a575090506109d9565b60006109a7826008611297565b90506109b481600a6112ae565b6109bf82600a6112ae565b6109c99085611252565b6109d3919061119d565b93505050505b92915050565b600281815481106109ef57600080fd5b9060005260206000209060049182820401919006600802915054906101000a90046001600160401b031681565b6001600160401b03821660009081526003602090815260408083208415158452825291829020805483518184028101840190945280845260609392830182828015610ab857602002820191906000526020600020906000905b82829054906101000a90046001600160801b03166001600160801b031681526020019060100190602082600f01049283019260010382029150808411610a755790505b5050505050905092915050565b60036020528260005260406000206020528160005260406000208181548110610aed57600080fd5b906000526020600020906002918282040191900660100292509250509054906101000a90046001600160801b031681565b60008054906101000a90046001600160a01b03166001600160a01b031663481c6a756040518163ffffffff1660e01b815260040160206040518083038186803b158015610b6a57600080fd5b505afa158015610b7e573d6000803e3d6000fd5b505050506040513d601f19601f82011682018060405250810190610ba291906112ba565b6001600160a01b0316336001600160a01b031614158015610c58575060008054906101000a90046001600160a01b03166001600160a01b0316630c340a246040518163ffffffff1660e01b815260040160206040518083038186803b158015610c0a57600080fd5b505afa158015610c1e573d6000803e3d6000fd5b505050506040513d601f19601f82011682018060405250810190610c4291906112ba565b6001600160a01b0316336001600160a01b031614155b15610c765760405163075fd2b160e01b815260040160405180910390fd5b565b60008054906101000a90046001600160a01b03166001600160a01b0316630c340a246040518163ffffffff1660e01b815260040160206040518083038186803b158015610cc457600080fd5b505afa158015610cd8573d6000803e3d6000fd5b505050506040513d601f19601f82011682018060405250810190610cfc91906112ba565b6001600160a01b0316336001600160a01b031614610c765760405163075fd2b160e01b815260040160405180910390fd5b600060208284031215610d3f57600080fd5b5035919050565b634e487b7160e01b600052604160045260246000fd5b60405160a081016001600160401b0381118282101715610d7e57610d7e610d46565b60405290565b604051601f8201601f191681016001600160401b0381118282101715610dac57610dac610d46565b604052919050565b80356001600160401b0381168114610dcb57600080fd5b919050565b80358015158114610dcb57600080fd5b60006020808385031215610df357600080fd5b82356001600160401b0380821115610e0a57600080fd5b818501915085601f830112610e1e57600080fd5b813581811115610e3057610e30610d46565b610e3e848260051b01610d84565b818152848101925060a0918202840185019188831115610e5d57600080fd5b938501935b82851015610eed5780858a031215610e7a5760008081fd5b610e82610d5c565b610e8b86610db4565b8152868601356001600160801b0381168114610ea75760008081fd5b818801526040610eb8878201610dd0565b908201526060610ec9878201610dd0565b908201526080610eda878201610dd0565b9082015284529384019392850192610e62565b50979650505050505050565b6020808252825182820181905260009190848201906040850190845b81811015610f3a5783516001600160401b031683529284019291840191600101610f15565b50909695505050505050565b6001600160a01b0381168114610f5b57600080fd5b50565b600060208284031215610f7057600080fd5b8135610f7b81610f46565b9392505050565b60008060408385031215610f9557600080fd5b823591506020830135610fa781610f46565b809150509250929050565b60008060408385031215610fc557600080fd5b610fce83610db4565b9150610fdc60208401610dd0565b90509250929050565b6020808252825182820181905260009190848201906040850190845b81811015610f3a5783516001600160801b031683529284019291840191600101611001565b60008060006060848603121561103b57600080fd5b8335925061104b60208501610dd0565b9150604084013590509250925092565b634e487b7160e01b600052603260045260246000fd5b634e487b7160e01b600052601160045260246000fd5b600060ff821660ff8416808210156110a1576110a1611071565b90039392505050565b600181815b808511156110e55781600019048211156110cb576110cb611071565b808516156110d857918102915b93841c93908002906110af565b509250929050565b6000826110fc575060016109d9565b81611109575060006109d9565b816001811461111f576002811461112957611145565b60019150506109d9565b60ff84111561113a5761113a611071565b50506001821b6109d9565b5060208310610133831016604e8410600b8410161715611168575081810a6109d9565b61117283836110aa565b806000190482111561118657611186611071565b029392505050565b6000610f7b60ff8416836110ed565b60008160001904831182151516156111b7576111b7611071565b500290565b60c09390931b6001600160c01b031916835260809190911b6fffffffffffffffffffffffffffffffff19166008830152151560f81b601882015260190190565b6001600160401b039590951685526001600160801b039390931660208501529015156040840152151560608301521515608082015260a00190565b600060001982141561124b5761124b611071565b5060010190565b60008261126f57634e487b7160e01b600052601260045260246000fd5b500490565b60006020828403121561128657600080fd5b815160ff81168114610f7b57600080fd5b6000828210156112a9576112a9611071565b500390565b6000610f7b83836110ed565b6000602082840312156112cc57600080fd5b8151610f7b81610f4656fea26469706673582212206068f5bfb1a15bd08cee35e3e9fe4fdac36e2e82aa6796fc53096567a1a2444264736f6c63430008090033",
    "linkReferences": {}
  },
  "methodIdentifiers": {
    "approvedOptions(bytes32)": "7b4c08f9",
    "authority()": "bf7e214f",
    "changeOptionBuyOrSell((uint64,uint128,bool,bool,bool)[])": "491fa4a4",
    "collateralAsset()": "aabaecd6",
    "expirations(uint256)": "c251ddf8",
    "formatStrikePrice(uint256,address)": "a3895ce6",
    "getExpirations()": "56e9d1e4",
    "getOptionDetails(uint64,bool)": "c71c5d0a",
    "getOptionStores(bytes32)": "948d6e37",
    "isBuyable(bytes32)": "1e2d7889",
    "isSellable(bytes32)": "066966f3",
    "issueNewSeries((uint64,uint128,bool,bool,bool)[])": "45749915",
    "optionDetails(uint256,bool,uint256)": "dd1c6baa",
    "optionStores(bytes32)": "f5fc79e1",
    "setAuthority(address)": "7a9e5e4b"
  },
  "id": 4
}